{
  "address": "0x75aaAad403b206db02B8bD0ea8E357D238Ae48f3",
  "abi": [
    {
      "inputs": [],
      "stateMutability": "nonpayable",
      "type": "constructor"
    },
    {
      "inputs": [],
      "name": "AmountZero",
      "type": "error"
    },
    {
      "inputs": [],
      "name": "InvalidLoanId",
      "type": "error"
    },
    {
      "inputs": [],
      "name": "InvalidState",
      "type": "error"
    },
    {
      "inputs": [],
      "name": "Unauthorized",
      "type": "error"
    },
    {
      "anonymous": false,
      "inputs": [
        {
          "indexed": true,
          "internalType": "uint256",
          "name": "loanId",
          "type": "uint256"
        },
        {
          "indexed": false,
          "internalType": "uint256",
          "name": "interestPaid",
          "type": "uint256"
        },
        {
          "indexed": false,
          "internalType": "uint256",
          "name": "principalPaid",
          "type": "uint256"
        },
        {
          "indexed": false,
          "internalType": "uint256",
          "name": "remaining",
          "type": "uint256"
        }
      ],
      "name": "LoanAccountingUpdated",
      "type": "event"
    },
    {
      "anonymous": false,
      "inputs": [
        {
          "indexed": true,
          "internalType": "uint256",
          "name": "loanId",
          "type": "uint256"
        },
        {
          "indexed": true,
          "internalType": "address",
          "name": "borrower",
          "type": "address"
        },
        {
          "indexed": false,
          "internalType": "uint256",
          "name": "amount",
          "type": "uint256"
        },
        {
          "indexed": false,
          "internalType": "uint16",
          "name": "rateBps",
          "type": "uint16"
        },
        {
          "indexed": false,
          "internalType": "uint16",
          "name": "tenorDays",
          "type": "uint16"
        }
      ],
      "name": "LoanCreated",
      "type": "event"
    },
    {
      "anonymous": false,
      "inputs": [
        {
          "indexed": true,
          "internalType": "uint256",
          "name": "loanId",
          "type": "uint256"
        },
        {
          "indexed": false,
          "internalType": "enum Types.LoanStatus",
          "name": "from",
          "type": "uint8"
        },
        {
          "indexed": false,
          "internalType": "enum Types.LoanStatus",
          "name": "to",
          "type": "uint8"
        }
      ],
      "name": "LoanStatusChanged",
      "type": "event"
    },
    {
      "anonymous": false,
      "inputs": [
        {
          "indexed": true,
          "internalType": "bytes32",
          "name": "role",
          "type": "bytes32"
        },
        {
          "indexed": true,
          "internalType": "bytes32",
          "name": "previousAdminRole",
          "type": "bytes32"
        },
        {
          "indexed": true,
          "internalType": "bytes32",
          "name": "newAdminRole",
          "type": "bytes32"
        }
      ],
      "name": "RoleAdminChanged",
      "type": "event"
    },
    {
      "anonymous": false,
      "inputs": [
        {
          "indexed": true,
          "internalType": "bytes32",
          "name": "role",
          "type": "bytes32"
        },
        {
          "indexed": true,
          "internalType": "address",
          "name": "account",
          "type": "address"
        },
        {
          "indexed": true,
          "internalType": "address",
          "name": "sender",
          "type": "address"
        }
      ],
      "name": "RoleGranted",
      "type": "event"
    },
    {
      "anonymous": false,
      "inputs": [
        {
          "indexed": true,
          "internalType": "bytes32",
          "name": "role",
          "type": "bytes32"
        },
        {
          "indexed": true,
          "internalType": "address",
          "name": "account",
          "type": "address"
        },
        {
          "indexed": true,
          "internalType": "address",
          "name": "sender",
          "type": "address"
        }
      ],
      "name": "RoleRevoked",
      "type": "event"
    },
    {
      "inputs": [],
      "name": "DEFAULT_ADMIN_ROLE",
      "outputs": [
        {
          "internalType": "bytes32",
          "name": "",
          "type": "bytes32"
        }
      ],
      "stateMutability": "view",
      "type": "function"
    },
    {
      "inputs": [],
      "name": "MANAGER_ROLE",
      "outputs": [
        {
          "internalType": "bytes32",
          "name": "",
          "type": "bytes32"
        }
      ],
      "stateMutability": "view",
      "type": "function"
    },
    {
      "inputs": [],
      "name": "POOL_ROLE",
      "outputs": [
        {
          "internalType": "bytes32",
          "name": "",
          "type": "bytes32"
        }
      ],
      "stateMutability": "view",
      "type": "function"
    },
    {
      "inputs": [
        {
          "internalType": "uint256",
          "name": "loanId",
          "type": "uint256"
        }
      ],
      "name": "approve",
      "outputs": [],
      "stateMutability": "nonpayable",
      "type": "function"
    },
    {
      "inputs": [
        {
          "internalType": "address",
          "name": "borrower",
          "type": "address"
        },
        {
          "internalType": "uint256",
          "name": "amount",
          "type": "uint256"
        },
        {
          "internalType": "uint16",
          "name": "rateBps",
          "type": "uint16"
        },
        {
          "internalType": "uint16",
          "name": "tenorDays",
          "type": "uint16"
        }
      ],
      "name": "createLoan",
      "outputs": [
        {
          "internalType": "uint256",
          "name": "loanId",
          "type": "uint256"
        }
      ],
      "stateMutability": "nonpayable",
      "type": "function"
    },
    {
      "inputs": [
        {
          "internalType": "uint256",
          "name": "loanId",
          "type": "uint256"
        }
      ],
      "name": "currentDebt",
      "outputs": [
        {
          "internalType": "uint256",
          "name": "principal",
          "type": "uint256"
        },
        {
          "internalType": "uint256",
          "name": "interest",
          "type": "uint256"
        },
        {
          "internalType": "uint256",
          "name": "lateFees",
          "type": "uint256"
        },
        {
          "internalType": "uint256",
          "name": "total",
          "type": "uint256"
        }
      ],
      "stateMutability": "view",
      "type": "function"
    },
    {
      "inputs": [
        {
          "internalType": "uint256",
          "name": "loanId",
          "type": "uint256"
        }
      ],
      "name": "drawdown",
      "outputs": [],
      "stateMutability": "nonpayable",
      "type": "function"
    },
    {
      "inputs": [
        {
          "internalType": "uint256",
          "name": "loanId",
          "type": "uint256"
        }
      ],
      "name": "getLoan",
      "outputs": [
        {
          "components": [
            {
              "internalType": "address",
              "name": "borrower",
              "type": "address"
            },
            {
              "internalType": "uint256",
              "name": "principal",
              "type": "uint256"
            },
            {
              "internalType": "uint256",
              "name": "createdAt",
              "type": "uint256"
            },
            {
              "internalType": "uint256",
              "name": "drawnAt",
              "type": "uint256"
            },
            {
              "internalType": "uint256",
              "name": "dueAt",
              "type": "uint256"
            },
            {
              "internalType": "uint16",
              "name": "rateBps",
              "type": "uint16"
            },
            {
              "internalType": "uint16",
              "name": "tenorDays",
              "type": "uint16"
            },
            {
              "internalType": "enum Types.LoanStatus",
              "name": "status",
              "type": "uint8"
            }
          ],
          "internalType": "struct Types.Loan",
          "name": "",
          "type": "tuple"
        }
      ],
      "stateMutability": "view",
      "type": "function"
    },
    {
      "inputs": [],
      "name": "getLoanCount",
      "outputs": [
        {
          "internalType": "uint256",
          "name": "",
          "type": "uint256"
        }
      ],
      "stateMutability": "view",
      "type": "function"
    },
    {
      "inputs": [
        {
          "internalType": "bytes32",
          "name": "role",
          "type": "bytes32"
        }
      ],
      "name": "getRoleAdmin",
      "outputs": [
        {
          "internalType": "bytes32",
          "name": "",
          "type": "bytes32"
        }
      ],
      "stateMutability": "view",
      "type": "function"
    },
    {
      "inputs": [
        {
          "internalType": "address",
          "name": "pool",
          "type": "address"
        }
      ],
      "name": "grantPoolRole",
      "outputs": [],
      "stateMutability": "nonpayable",
      "type": "function"
    },
    {
      "inputs": [
        {
          "internalType": "bytes32",
          "name": "role",
          "type": "bytes32"
        },
        {
          "internalType": "address",
          "name": "account",
          "type": "address"
        }
      ],
      "name": "grantRole",
      "outputs": [],
      "stateMutability": "nonpayable",
      "type": "function"
    },
    {
      "inputs": [
        {
          "internalType": "bytes32",
          "name": "role",
          "type": "bytes32"
        },
        {
          "internalType": "address",
          "name": "account",
          "type": "address"
        }
      ],
      "name": "hasRole",
      "outputs": [
        {
          "internalType": "bool",
          "name": "",
          "type": "bool"
        }
      ],
      "stateMutability": "view",
      "type": "function"
    },
    {
      "inputs": [
        {
          "internalType": "uint256",
          "name": "",
          "type": "uint256"
        }
      ],
      "name": "loans",
      "outputs": [
        {
          "internalType": "address",
          "name": "borrower",
          "type": "address"
        },
        {
          "internalType": "uint256",
          "name": "principal",
          "type": "uint256"
        },
        {
          "internalType": "uint256",
          "name": "createdAt",
          "type": "uint256"
        },
        {
          "internalType": "uint256",
          "name": "drawnAt",
          "type": "uint256"
        },
        {
          "internalType": "uint256",
          "name": "dueAt",
          "type": "uint256"
        },
        {
          "internalType": "uint16",
          "name": "rateBps",
          "type": "uint16"
        },
        {
          "internalType": "uint16",
          "name": "tenorDays",
          "type": "uint16"
        },
        {
          "internalType": "enum Types.LoanStatus",
          "name": "status",
          "type": "uint8"
        }
      ],
      "stateMutability": "view",
      "type": "function"
    },
    {
      "inputs": [
        {
          "internalType": "uint256",
          "name": "loanId",
          "type": "uint256"
        }
      ],
      "name": "markDefault",
      "outputs": [],
      "stateMutability": "nonpayable",
      "type": "function"
    },
    {
      "inputs": [
        {
          "internalType": "bytes32",
          "name": "role",
          "type": "bytes32"
        },
        {
          "internalType": "address",
          "name": "account",
          "type": "address"
        }
      ],
      "name": "renounceRole",
      "outputs": [],
      "stateMutability": "nonpayable",
      "type": "function"
    },
    {
      "inputs": [
        {
          "internalType": "uint256",
          "name": "loanId",
          "type": "uint256"
        },
        {
          "internalType": "uint256",
          "name": "amount",
          "type": "uint256"
        }
      ],
      "name": "repay",
      "outputs": [
        {
          "internalType": "uint256",
          "name": "remaining",
          "type": "uint256"
        }
      ],
      "stateMutability": "nonpayable",
      "type": "function"
    },
    {
      "inputs": [
        {
          "internalType": "address",
          "name": "pool",
          "type": "address"
        }
      ],
      "name": "revokePoolRole",
      "outputs": [],
      "stateMutability": "nonpayable",
      "type": "function"
    },
    {
      "inputs": [
        {
          "internalType": "bytes32",
          "name": "role",
          "type": "bytes32"
        },
        {
          "internalType": "address",
          "name": "account",
          "type": "address"
        }
      ],
      "name": "revokeRole",
      "outputs": [],
      "stateMutability": "nonpayable",
      "type": "function"
    },
    {
      "inputs": [
        {
          "internalType": "bytes4",
          "name": "interfaceId",
          "type": "bytes4"
        }
      ],
      "name": "supportsInterface",
      "outputs": [
        {
          "internalType": "bool",
          "name": "",
          "type": "bool"
        }
      ],
      "stateMutability": "view",
      "type": "function"
    }
  ],
  "transactionHash": "0x70643ece66888bbf2402b34356de2506f6ddd0e6aaf8ab88b910b1839cf962e1",
  "args": [],
  "numDeployments": 1,
  "solcInputHash": "c587519d7c1b108d85a4026883e7527a",
  "bytecode": "0x608060405234801561001057600080fd5b5061001c60003361004b565b6100467f241ecf16d79d0f8dbfb92cbc07fe17840425976cf0667f022fe9877caa831b083361004b565b6100ea565b6000828152602081815260408083206001600160a01b038516845290915290205460ff166100e6576000828152602081815260408083206001600160a01b03851684529091529020805460ff191660011790556100a53390565b6001600160a01b0316816001600160a01b0316837f2f8788117e7eff1d82e926ec794901d17c78024a50270940304540a733656f0d60405160405180910390a45b5050565b6114ed806100f96000396000f3fe608060405234801561001057600080fd5b506004361061012c5760003560e01c8063a217fddf116100ad578063e1d927c811610071578063e1d927c81461029c578063e1ec3c68146102af578063e5b4003b1461032d578063ec87621c14610340578063fa404e341461036757600080fd5b8063a217fddf14610228578063b759f95414610230578063bcb2966714610243578063d547741f14610276578063d8aed1451461028957600080fd5b8063504006ca116100f4578063504006ca146101c757806352196812146101e757806391d14854146101ef5780639aaa9dac14610202578063a079a4dd1461021557600080fd5b806301ffc9a714610131578063248a9ca3146101595780632f2ff15d1461018a57806336568abe1461019f578063404ccd07146101b2575b600080fd5b61014461013f36600461106c565b61037a565b60405190151581526020015b60405180910390f35b61017c610167366004611096565b60009081526020819052604090206001015490565b604051908152602001610150565b61019d6101983660046110cb565b6103b1565b005b61019d6101ad3660046110cb565b6103db565b61017c60008051602061147883398151915281565b6101da6101d5366004611096565b61045e565b604051610150919061112f565b60015461017c565b6101446101fd3660046110cb565b61054d565b61017c6102103660046111b5565b610576565b61019d610223366004611096565b610760565b61017c600081565b61019d61023e366004611096565b610869565b610256610251366004611096565b610931565b604080519485526020850193909352918301526060820152608001610150565b61019d6102843660046110cb565b6109d8565b61017c610297366004611202565b6109fd565b61019d6102aa366004611096565b610bc7565b6103196102bd366004611096565b60026020819052600091825260409091208054600182015492820154600383015460048401546005909401546001600160a01b039093169493919290919061ffff8082169162010000810490911690600160201b900460ff1688565b604051610150989796959493929190611224565b61019d61033b36600461127d565b610cb4565b61017c7f241ecf16d79d0f8dbfb92cbc07fe17840425976cf0667f022fe9877caa831b0881565b61019d61037536600461127d565b610cd7565b60006001600160e01b03198216637965db0b60e01b14806103ab57506301ffc9a760e01b6001600160e01b03198316145b92915050565b6000828152602081905260409020600101546103cc81610cfa565b6103d68383610d07565b505050565b6001600160a01b03811633146104505760405162461bcd60e51b815260206004820152602f60248201527f416363657373436f6e74726f6c3a2063616e206f6e6c792072656e6f756e636560448201526e103937b632b9903337b91039b2b63360891b60648201526084015b60405180910390fd5b61045a8282610d8b565b5050565b6104a36040805161010081018252600080825260208201819052918101829052606081018290526080810182905260a0810182905260c081018290529060e082015290565b60008281526002602081815260409283902083516101008101855281546001600160a01b031681526001820154928101929092529182015492810192909252600381015460608301526004808201546080840152600582015461ffff80821660a08601526201000082041660c085015260e0840191600160201b90910460ff1690811115610533576105336110f7565b6004811115610544576105446110f7565b90525092915050565b6000918252602082815260408084206001600160a01b0393909316845291905290205460ff1690565b600060008051602061147883398151915261059081610cfa565b846000036105b1576040516365e52d5160e11b815260040160405180910390fd5b6001600160a01b0386166105d85760405163baf3f0f760e01b815260040160405180910390fd5b600180549060006105e8836112ae565b919050559150604051806101000160405280876001600160a01b0316815260200186815260200142815260200160008152602001600081526020018561ffff1681526020018461ffff1681526020016000600481111561064a5761064a6110f7565b9052600083815260026020818152604092839020845181546001600160a01b039091166001600160a01b0319909116178155908401516001820155918301519082015560608201516003820155608082015160048083019190915560a083015160058301805460c086015161ffff908116620100000263ffffffff199092169316929092179190911780825560e08501519264ff000000001990911690600160201b9084908111156106fe576106fe6110f7565b0217905550506040805187815261ffff878116602083015286168183015290516001600160a01b038916925084917f87bd1bf93d0ca7e7be07b6891d920024ad92a67735117c931859f629f4c0439d919081900360600190a350949350505050565b60008051602061147883398151915261077881610cfa565b600082815260026020526040902080546001600160a01b03166107ae5760405163019595ef60e71b815260040160405180910390fd5b60016005820154600160201b900460ff1660048111156107d0576107d06110f7565b146107ee5760405163baf3f0f760e01b815260040160405180910390fd5b60058101805464ff00000000191664020000000017908190554260038301556108249062010000900461ffff16620151806112c7565b6108339062ffffff16426112ee565b600482015560405183906000805160206114988339815191529061085c90600190600290611301565b60405180910390a2505050565b60008051602061147883398151915261088181610cfa565b600082815260026020526040902080546001600160a01b03166108b75760405163019595ef60e71b815260040160405180910390fd5b60006005820154600160201b900460ff1660048111156108d9576108d96110f7565b146108f75760405163baf3f0f760e01b815260040160405180910390fd5b60058101805464ff000000001916600160201b17905560405183906000805160206114988339815191529061085c90600090600190611301565b60008181526002602052604081208054829182918291906001600160a01b031661096e5760405163019595ef60e71b815260040160405180910390fd5b60026005820154600160201b900460ff166004811115610990576109906110f7565b146109ae5760405163baf3f0f760e01b815260040160405180910390fd5b806001015494506109be81610df0565b9350600092506109ce84866112ee565b9150509193509193565b6000828152602081905260409020600101546109f381610cfa565b6103d68383610d8b565b6000600080516020611478833981519152610a1781610cfa565b82600003610a38576040516365e52d5160e11b815260040160405180910390fd5b600084815260026020526040902080546001600160a01b0316610a6e5760405163019595ef60e71b815260040160405180910390fd5b60026005820154600160201b900460ff166004811115610a9057610a906110f7565b14610aae5760405163baf3f0f760e01b815260040160405180910390fd5b6000610ab982610df0565b90506000818360010154610acd91906112ee565b9050600080828810610b3357505060058301805464ff00000000191664030000000017905560006001840181905560405190955082908690899060008051602061149883398151915290610b2690600290600390611301565b60405180910390a2610b78565b83881115610b415783610b43565b875b9150610b4f828961131c565b905080856001016000828254610b65919061131c565b90915550610b759050888461131c565b96505b604080518381526020810183905290810188905289907f49770997582961635fe8a2fbf994a2bd5458d2d14bc18ee6ffe3b01d2cd895ca9060600160405180910390a250505050505092915050565b600080516020611478833981519152610bdf81610cfa565b600082815260026020526040902080546001600160a01b0316610c155760405163019595ef60e71b815260040160405180910390fd5b60026005820154600160201b900460ff166004811115610c3757610c376110f7565b14610c555760405163baf3f0f760e01b815260040160405180910390fd5b80600401544211610c795760405163baf3f0f760e01b815260040160405180910390fd5b60058101805464ff00000000191664040000000017905560405183906000805160206114988339815191529061085c90600290600490611301565b6000610cbf81610cfa565b61045a60008051602061147883398151915283610d07565b6000610ce281610cfa565b61045a60008051602061147883398151915283610d8b565b610d048133610e65565b50565b610d11828261054d565b61045a576000828152602081815260408083206001600160a01b03851684529091529020805460ff19166001179055610d473390565b6001600160a01b0316816001600160a01b0316837f2f8788117e7eff1d82e926ec794901d17c78024a50270940304540a733656f0d60405160405180910390a45050565b610d95828261054d565b1561045a576000828152602081815260408083206001600160a01b0385168085529252808320805460ff1916905551339285917ff6391f5c32d9c69d2a47ea670b442974b53935d1edc7fd64eb21e047a839171b9190a45050565b60008160030154600003610e0657506000919050565b600062015180836003015442610e1c919061131c565b610e26919061132f565b600584015460018501549192506237b1d0918391610e4a9161ffff90911690611351565b610e549190611351565b610e5e919061132f565b9392505050565b610e6f828261054d565b61045a57610e7c81610ebe565b610e87836020610ed0565b604051602001610e9892919061138c565b60408051601f198184030181529082905262461bcd60e51b825261044791600401611401565b60606103ab6001600160a01b03831660145b60606000610edf836002611351565b610eea9060026112ee565b67ffffffffffffffff811115610f0257610f02611434565b6040519080825280601f01601f191660200182016040528015610f2c576020820181803683370190505b509050600360fc1b81600081518110610f4757610f4761144a565b60200101906001600160f81b031916908160001a905350600f60fb1b81600181518110610f7657610f7661144a565b60200101906001600160f81b031916908160001a9053506000610f9a846002611351565b610fa59060016112ee565b90505b600181111561101d576f181899199a1a9b1b9c1cb0b131b232b360811b85600f1660108110610fd957610fd961144a565b1a60f81b828281518110610fef57610fef61144a565b60200101906001600160f81b031916908160001a90535060049490941c9361101681611460565b9050610fa8565b508315610e5e5760405162461bcd60e51b815260206004820181905260248201527f537472696e67733a20686578206c656e67746820696e73756666696369656e746044820152606401610447565b60006020828403121561107e57600080fd5b81356001600160e01b031981168114610e5e57600080fd5b6000602082840312156110a857600080fd5b5035919050565b80356001600160a01b03811681146110c657600080fd5b919050565b600080604083850312156110de57600080fd5b823591506110ee602084016110af565b90509250929050565b634e487b7160e01b600052602160045260246000fd5b6005811061112b57634e487b7160e01b600052602160045260246000fd5b9052565b60006101008201905060018060a01b0383511682526020830151602083015260408301516040830152606083015160608301526080830151608083015260a083015161ffff80821660a08501528060c08601511660c0850152505060e083015161119c60e084018261110d565b5092915050565b803561ffff811681146110c657600080fd5b600080600080608085870312156111cb57600080fd5b6111d4856110af565b9350602085013592506111e9604086016111a3565b91506111f7606086016111a3565b905092959194509250565b6000806040838503121561121557600080fd5b50508035926020909101359150565b6001600160a01b03891681526020810188905260408101879052606081018690526080810185905261ffff84811660a0830152831660c0820152610100810161127060e083018461110d565b9998505050505050505050565b60006020828403121561128f57600080fd5b610e5e826110af565b634e487b7160e01b600052601160045260246000fd5b6000600182016112c0576112c0611298565b5060010190565b62ffffff8181168382160280821691908281146112e6576112e6611298565b505092915050565b808201808211156103ab576103ab611298565b6040810161130f828561110d565b610e5e602083018461110d565b818103818111156103ab576103ab611298565b60008261134c57634e487b7160e01b600052601260045260246000fd5b500490565b80820281158282048414176103ab576103ab611298565b60005b8381101561138357818101518382015260200161136b565b50506000910152565b7f416363657373436f6e74726f6c3a206163636f756e74200000000000000000008152600083516113c4816017850160208801611368565b7001034b99036b4b9b9b4b733903937b6329607d1b60179184019182015283516113f5816028840160208801611368565b01602801949350505050565b6020815260008251806020840152611420816040850160208701611368565b601f01601f19169190910160400192915050565b634e487b7160e01b600052604160045260246000fd5b634e487b7160e01b600052603260045260246000fd5b60008161146f5761146f611298565b50600019019056feb8179c2726c8d8961ef054875ab3f4c1c3d34e1cb429c3d5e0bc97958e4cab9d392df00c89a09571865cf4a708cee83527a8eba918e951b455a33269913486c3a2646970667358221220f54c9383c8b83166ac645fb9787de40fbc21b093aa2271ec23757a7dab5a1ac664736f6c63430008110033",
  "devdoc": {
    "details": "Manages loan lifecycle and accounting for MicroCredit pools",
    "kind": "dev",
    "methods": {
      "approve(uint256)": {
        "details": "Approve a loan request",
        "params": {
          "loanId": "ID of the loan to approve"
        }
      },
      "createLoan(address,uint256,uint16,uint16)": {
        "details": "Create a new loan request",
        "params": {
          "amount": "Principal amount requested",
          "borrower": "Address of the borrower",
          "rateBps": "Interest rate in basis points",
          "tenorDays": "Loan term in days"
        },
        "returns": {
          "loanId": "Unique identifier for the loan"
        }
      },
      "currentDebt(uint256)": {
        "details": "Calculate current debt for a loan",
        "params": {
          "loanId": "ID of the loan"
        },
        "returns": {
          "interest": "Accrued interest",
          "lateFees": "Late fees (always 0 in MVP)",
          "principal": "Remaining principal",
          "total": "Total debt"
        }
      },
      "drawdown(uint256)": {
        "details": "Process loan drawdown",
        "params": {
          "loanId": "ID of the loan to drawdown"
        }
      },
      "getLoan(uint256)": {
        "details": "Get loan details",
        "params": {
          "loanId": "ID of the loan"
        },
        "returns": {
          "_0": "Loan struct"
        }
      },
      "getLoanCount()": {
        "details": "Get total loan count",
        "returns": {
          "_0": "Total number of loans created"
        }
      },
      "getRoleAdmin(bytes32)": {
        "details": "Returns the admin role that controls `role`. See {grantRole} and {revokeRole}. To change a role's admin, use {_setRoleAdmin}."
      },
      "grantPoolRole(address)": {
        "details": "Grant POOL_ROLE to a pool contract",
        "params": {
          "pool": "Address of the pool contract"
        }
      },
      "grantRole(bytes32,address)": {
        "details": "Grants `role` to `account`. If `account` had not been already granted `role`, emits a {RoleGranted} event. Requirements: - the caller must have ``role``'s admin role. May emit a {RoleGranted} event."
      },
      "hasRole(bytes32,address)": {
        "details": "Returns `true` if `account` has been granted `role`."
      },
      "markDefault(uint256)": {
        "details": "Mark a loan as defaulted",
        "params": {
          "loanId": "ID of the loan to mark as defaulted"
        }
      },
      "renounceRole(bytes32,address)": {
        "details": "Revokes `role` from the calling account. Roles are often managed via {grantRole} and {revokeRole}: this function's purpose is to provide a mechanism for accounts to lose their privileges if they are compromised (such as when a trusted device is misplaced). If the calling account had been revoked `role`, emits a {RoleRevoked} event. Requirements: - the caller must be `account`. May emit a {RoleRevoked} event."
      },
      "repay(uint256,uint256)": {
        "details": "Process loan repayment",
        "params": {
          "amount": "Amount being repaid",
          "loanId": "ID of the loan to repay"
        },
        "returns": {
          "remaining": "Remaining debt after repayment"
        }
      },
      "revokePoolRole(address)": {
        "details": "Revoke POOL_ROLE from a pool contract",
        "params": {
          "pool": "Address of the pool contract"
        }
      },
      "revokeRole(bytes32,address)": {
        "details": "Revokes `role` from `account`. If `account` had been granted `role`, emits a {RoleRevoked} event. Requirements: - the caller must have ``role``'s admin role. May emit a {RoleRevoked} event."
      },
      "supportsInterface(bytes4)": {
        "details": "See {IERC165-supportsInterface}."
      }
    },
    "title": "LoanManager",
    "version": 1
  },
  "userdoc": {
    "kind": "user",
    "methods": {},
    "version": 1
  },
  "storageLayout": {
    "storage": [
      {
        "astId": 24,
        "contract": "contracts/LoanManager.sol:LoanManager",
        "label": "_roles",
        "offset": 0,
        "slot": "0",
        "type": "t_mapping(t_bytes32,t_struct(RoleData)19_storage)"
      },
      {
        "astId": 1668,
        "contract": "contracts/LoanManager.sol:LoanManager",
        "label": "_loanCounter",
        "offset": 0,
        "slot": "1",
        "type": "t_uint256"
      },
      {
        "astId": 1673,
        "contract": "contracts/LoanManager.sol:LoanManager",
        "label": "loans",
        "offset": 0,
        "slot": "2",
        "type": "t_mapping(t_uint256,t_struct(Loan)2409_storage)"
      }
    ],
    "types": {
      "t_address": {
        "encoding": "inplace",
        "label": "address",
        "numberOfBytes": "20"
      },
      "t_bool": {
        "encoding": "inplace",
        "label": "bool",
        "numberOfBytes": "1"
      },
      "t_bytes32": {
        "encoding": "inplace",
        "label": "bytes32",
        "numberOfBytes": "32"
      },
      "t_enum(LoanStatus)2380": {
        "encoding": "inplace",
        "label": "enum Types.LoanStatus",
        "numberOfBytes": "1"
      },
      "t_mapping(t_address,t_bool)": {
        "encoding": "mapping",
        "key": "t_address",
        "label": "mapping(address => bool)",
        "numberOfBytes": "32",
        "value": "t_bool"
      },
      "t_mapping(t_bytes32,t_struct(RoleData)19_storage)": {
        "encoding": "mapping",
        "key": "t_bytes32",
        "label": "mapping(bytes32 => struct AccessControl.RoleData)",
        "numberOfBytes": "32",
        "value": "t_struct(RoleData)19_storage"
      },
      "t_mapping(t_uint256,t_struct(Loan)2409_storage)": {
        "encoding": "mapping",
        "key": "t_uint256",
        "label": "mapping(uint256 => struct Types.Loan)",
        "numberOfBytes": "32",
        "value": "t_struct(Loan)2409_storage"
      },
      "t_struct(Loan)2409_storage": {
        "encoding": "inplace",
        "label": "struct Types.Loan",
        "members": [
          {
            "astId": 2393,
            "contract": "contracts/LoanManager.sol:LoanManager",
            "label": "borrower",
            "offset": 0,
            "slot": "0",
            "type": "t_address"
          },
          {
            "astId": 2395,
            "contract": "contracts/LoanManager.sol:LoanManager",
            "label": "principal",
            "offset": 0,
            "slot": "1",
            "type": "t_uint256"
          },
          {
            "astId": 2397,
            "contract": "contracts/LoanManager.sol:LoanManager",
            "label": "createdAt",
            "offset": 0,
            "slot": "2",
            "type": "t_uint256"
          },
          {
            "astId": 2399,
            "contract": "contracts/LoanManager.sol:LoanManager",
            "label": "drawnAt",
            "offset": 0,
            "slot": "3",
            "type": "t_uint256"
          },
          {
            "astId": 2401,
            "contract": "contracts/LoanManager.sol:LoanManager",
            "label": "dueAt",
            "offset": 0,
            "slot": "4",
            "type": "t_uint256"
          },
          {
            "astId": 2403,
            "contract": "contracts/LoanManager.sol:LoanManager",
            "label": "rateBps",
            "offset": 0,
            "slot": "5",
            "type": "t_uint16"
          },
          {
            "astId": 2405,
            "contract": "contracts/LoanManager.sol:LoanManager",
            "label": "tenorDays",
            "offset": 2,
            "slot": "5",
            "type": "t_uint16"
          },
          {
            "astId": 2408,
            "contract": "contracts/LoanManager.sol:LoanManager",
            "label": "status",
            "offset": 4,
            "slot": "5",
            "type": "t_enum(LoanStatus)2380"
          }
        ],
        "numberOfBytes": "192"
      },
      "t_struct(RoleData)19_storage": {
        "encoding": "inplace",
        "label": "struct AccessControl.RoleData",
        "members": [
          {
            "astId": 16,
            "contract": "contracts/LoanManager.sol:LoanManager",
            "label": "members",
            "offset": 0,
            "slot": "0",
            "type": "t_mapping(t_address,t_bool)"
          },
          {
            "astId": 18,
            "contract": "contracts/LoanManager.sol:LoanManager",
            "label": "adminRole",
            "offset": 0,
            "slot": "1",
            "type": "t_bytes32"
          }
        ],
        "numberOfBytes": "64"
      },
      "t_uint16": {
        "encoding": "inplace",
        "label": "uint16",
        "numberOfBytes": "2"
      },
      "t_uint256": {
        "encoding": "inplace",
        "label": "uint256",
        "numberOfBytes": "32"
      }
    }
  }
}