{
  "address": "0xAD39Bd520B519b21Ed1dFE35B21d915c459E892E",
  "abi": [
    {
      "inputs": [],
      "stateMutability": "nonpayable",
      "type": "constructor"
    },
    {
      "inputs": [],
      "name": "InvalidAddress",
      "type": "error"
    },
    {
      "inputs": [],
      "name": "PoolAlreadyExists",
      "type": "error"
    },
    {
      "anonymous": false,
      "inputs": [
        {
          "indexed": true,
          "internalType": "address",
          "name": "pool",
          "type": "address"
        },
        {
          "indexed": true,
          "internalType": "address",
          "name": "stable",
          "type": "address"
        },
        {
          "components": [
            {
              "internalType": "uint16",
              "name": "interestRateBps",
              "type": "uint16"
            },
            {
              "internalType": "uint16",
              "name": "tenorDays",
              "type": "uint16"
            },
            {
              "internalType": "uint16",
              "name": "maxLoanToPoolBps",
              "type": "uint16"
            },
            {
              "internalType": "uint16",
              "name": "reserveFactorBps",
              "type": "uint16"
            },
            {
              "internalType": "uint16",
              "name": "minCreditScore",
              "type": "uint16"
            }
          ],
          "indexed": false,
          "internalType": "struct Types.PoolParams",
          "name": "params",
          "type": "tuple"
        }
      ],
      "name": "PoolCreated",
      "type": "event"
    },
    {
      "anonymous": false,
      "inputs": [
        {
          "indexed": true,
          "internalType": "bytes32",
          "name": "role",
          "type": "bytes32"
        },
        {
          "indexed": true,
          "internalType": "bytes32",
          "name": "previousAdminRole",
          "type": "bytes32"
        },
        {
          "indexed": true,
          "internalType": "bytes32",
          "name": "newAdminRole",
          "type": "bytes32"
        }
      ],
      "name": "RoleAdminChanged",
      "type": "event"
    },
    {
      "anonymous": false,
      "inputs": [
        {
          "indexed": true,
          "internalType": "bytes32",
          "name": "role",
          "type": "bytes32"
        },
        {
          "indexed": true,
          "internalType": "address",
          "name": "account",
          "type": "address"
        },
        {
          "indexed": true,
          "internalType": "address",
          "name": "sender",
          "type": "address"
        }
      ],
      "name": "RoleGranted",
      "type": "event"
    },
    {
      "anonymous": false,
      "inputs": [
        {
          "indexed": true,
          "internalType": "bytes32",
          "name": "role",
          "type": "bytes32"
        },
        {
          "indexed": true,
          "internalType": "address",
          "name": "account",
          "type": "address"
        },
        {
          "indexed": true,
          "internalType": "address",
          "name": "sender",
          "type": "address"
        }
      ],
      "name": "RoleRevoked",
      "type": "event"
    },
    {
      "inputs": [],
      "name": "DEFAULT_ADMIN_ROLE",
      "outputs": [
        {
          "internalType": "bytes32",
          "name": "",
          "type": "bytes32"
        }
      ],
      "stateMutability": "view",
      "type": "function"
    },
    {
      "inputs": [
        {
          "internalType": "address",
          "name": "stable",
          "type": "address"
        },
        {
          "components": [
            {
              "internalType": "uint16",
              "name": "interestRateBps",
              "type": "uint16"
            },
            {
              "internalType": "uint16",
              "name": "tenorDays",
              "type": "uint16"
            },
            {
              "internalType": "uint16",
              "name": "maxLoanToPoolBps",
              "type": "uint16"
            },
            {
              "internalType": "uint16",
              "name": "reserveFactorBps",
              "type": "uint16"
            },
            {
              "internalType": "uint16",
              "name": "minCreditScore",
              "type": "uint16"
            }
          ],
          "internalType": "struct Types.PoolParams",
          "name": "params",
          "type": "tuple"
        },
        {
          "internalType": "string",
          "name": "name",
          "type": "string"
        },
        {
          "internalType": "string",
          "name": "symbol",
          "type": "string"
        }
      ],
      "name": "createPool",
      "outputs": [
        {
          "internalType": "address",
          "name": "pool",
          "type": "address"
        }
      ],
      "stateMutability": "nonpayable",
      "type": "function"
    },
    {
      "inputs": [],
      "name": "getPoolCount",
      "outputs": [
        {
          "internalType": "uint256",
          "name": "",
          "type": "uint256"
        }
      ],
      "stateMutability": "view",
      "type": "function"
    },
    {
      "inputs": [],
      "name": "getPools",
      "outputs": [
        {
          "internalType": "address[]",
          "name": "",
          "type": "address[]"
        }
      ],
      "stateMutability": "view",
      "type": "function"
    },
    {
      "inputs": [
        {
          "internalType": "bytes32",
          "name": "role",
          "type": "bytes32"
        }
      ],
      "name": "getRoleAdmin",
      "outputs": [
        {
          "internalType": "bytes32",
          "name": "",
          "type": "bytes32"
        }
      ],
      "stateMutability": "view",
      "type": "function"
    },
    {
      "inputs": [
        {
          "internalType": "address",
          "name": "admin",
          "type": "address"
        }
      ],
      "name": "grantAdminRole",
      "outputs": [],
      "stateMutability": "nonpayable",
      "type": "function"
    },
    {
      "inputs": [
        {
          "internalType": "bytes32",
          "name": "role",
          "type": "bytes32"
        },
        {
          "internalType": "address",
          "name": "account",
          "type": "address"
        }
      ],
      "name": "grantRole",
      "outputs": [],
      "stateMutability": "nonpayable",
      "type": "function"
    },
    {
      "inputs": [
        {
          "internalType": "bytes32",
          "name": "role",
          "type": "bytes32"
        },
        {
          "internalType": "address",
          "name": "account",
          "type": "address"
        }
      ],
      "name": "hasRole",
      "outputs": [
        {
          "internalType": "bool",
          "name": "",
          "type": "bool"
        }
      ],
      "stateMutability": "view",
      "type": "function"
    },
    {
      "inputs": [
        {
          "internalType": "address",
          "name": "",
          "type": "address"
        }
      ],
      "name": "isPool",
      "outputs": [
        {
          "internalType": "bool",
          "name": "",
          "type": "bool"
        }
      ],
      "stateMutability": "view",
      "type": "function"
    },
    {
      "inputs": [
        {
          "internalType": "address",
          "name": "pool",
          "type": "address"
        }
      ],
      "name": "isValidPool",
      "outputs": [
        {
          "internalType": "bool",
          "name": "",
          "type": "bool"
        }
      ],
      "stateMutability": "view",
      "type": "function"
    },
    {
      "inputs": [
        {
          "internalType": "address[]",
          "name": "poolAddresses",
          "type": "address[]"
        }
      ],
      "name": "pausePools",
      "outputs": [],
      "stateMutability": "nonpayable",
      "type": "function"
    },
    {
      "inputs": [
        {
          "internalType": "uint256",
          "name": "",
          "type": "uint256"
        }
      ],
      "name": "pools",
      "outputs": [
        {
          "internalType": "address",
          "name": "",
          "type": "address"
        }
      ],
      "stateMutability": "view",
      "type": "function"
    },
    {
      "inputs": [
        {
          "internalType": "bytes32",
          "name": "role",
          "type": "bytes32"
        },
        {
          "internalType": "address",
          "name": "account",
          "type": "address"
        }
      ],
      "name": "renounceRole",
      "outputs": [],
      "stateMutability": "nonpayable",
      "type": "function"
    },
    {
      "inputs": [
        {
          "internalType": "address",
          "name": "admin",
          "type": "address"
        }
      ],
      "name": "revokeAdminRole",
      "outputs": [],
      "stateMutability": "nonpayable",
      "type": "function"
    },
    {
      "inputs": [
        {
          "internalType": "bytes32",
          "name": "role",
          "type": "bytes32"
        },
        {
          "internalType": "address",
          "name": "account",
          "type": "address"
        }
      ],
      "name": "revokeRole",
      "outputs": [],
      "stateMutability": "nonpayable",
      "type": "function"
    },
    {
      "inputs": [
        {
          "internalType": "bytes4",
          "name": "interfaceId",
          "type": "bytes4"
        }
      ],
      "name": "supportsInterface",
      "outputs": [
        {
          "internalType": "bool",
          "name": "",
          "type": "bool"
        }
      ],
      "stateMutability": "view",
      "type": "function"
    },
    {
      "inputs": [
        {
          "internalType": "address[]",
          "name": "poolAddresses",
          "type": "address[]"
        }
      ],
      "name": "unpausePools",
      "outputs": [],
      "stateMutability": "nonpayable",
      "type": "function"
    }
  ],
  "transactionHash": "0xc436c9cdec7bcfb41c2834d250d1efb04d60be5a1e8856f178d5edee8462e324",
  "args": [],
  "numDeployments": 1,
  "solcInputHash": "f8632aeaa7a93da172a88becd52b5392",
  "bytecode": "0x608060405234801561001057600080fd5b5061001c600033610021565b6100c0565b6000828152602081815260408083206001600160a01b038516845290915290205460ff166100bc576000828152602081815260408083206001600160a01b03851684529091529020805460ff1916600117905561007b3390565b6001600160a01b0316816001600160a01b0316837f2f8788117e7eff1d82e926ec794901d17c78024a50270940304540a733656f0d60405160405180910390a45b5050565b614682806100cf6000396000f3fe60806040523480156200001157600080fd5b5060043610620001215760003560e01c80638eec5d7011620000af578063a217fddf116200007a578063a217fddf146200028a578063ac4afa381462000293578063b30b8d5114620002c3578063c634b78e14620002da578063d547741f14620002f157600080fd5b80638eec5d70146200023c57806391d1485414620002455780639a19c7b0146200025c578063a20dc529146200027357600080fd5b80633f5e9c3511620000f05780633f5e9c3514620001b75780635ab78ee114620001ce5780635b16ebb714620001fd578063673a2a1f146200022357600080fd5b806301ffc9a71462000126578063248a9ca314620001525780632f2ff15d146200018757806336568abe14620001a0575b600080fd5b6200013d6200013736600462000ce2565b62000308565b60405190151581526020015b60405180910390f35b620001786200016336600462000d0e565b60009081526020819052604090206001015490565b60405190815260200162000149565b6200019e6200019836600462000d45565b62000340565b005b6200019e620001b136600462000d45565b6200036e565b6200019e620001c836600462000d74565b620003f4565b6200013d620001df36600462000dee565b6001600160a01b031660009081526002602052604090205460ff1690565b6200013d6200020e36600462000dee565b60026020526000908152604090205460ff1681565b6200022d620004d2565b60405162000149919062000e0c565b60015462000178565b6200013d6200025636600462000d45565b62000536565b6200019e6200026d36600462000dee565b6200055f565b6200019e6200028436600462000d74565b620005a3565b62000178600081565b620002aa620002a436600462000d0e565b6200067b565b6040516001600160a01b03909116815260200162000149565b620002aa620002d436600462000f06565b620006a6565b6200019e620002eb36600462000dee565b62000932565b6200019e6200030236600462000d45565b62000974565b60006001600160e01b03198216637965db0b60e01b14806200033a57506301ffc9a760e01b6001600160e01b03198316145b92915050565b6000828152602081905260409020600101546200035d816200099d565b620003698383620009ac565b505050565b6001600160a01b0381163314620003e45760405162461bcd60e51b815260206004820152602f60248201527f416363657373436f6e74726f6c3a2063616e206f6e6c792072656e6f756e636560448201526e103937b632b9903337b91039b2b63360891b60648201526084015b60405180910390fd5b620003f0828262000a34565b5050565b600062000401816200099d565b60005b82811015620004cc57600084848381811062000424576200042462000fa2565b90506020020160208101906200043b919062000dee565b6001600160a01b03811660009081526002602052604090205490915060ff1615620004b657806001600160a01b0316633f4ba83a6040518163ffffffff1660e01b8152600401600060405180830381600087803b1580156200049c57600080fd5b505af1158015620004b1573d6000803e3d6000fd5b505050505b5080620004c38162000fce565b91505062000404565b50505050565b606060018054806020026020016040519081016040528092919081815260200182805480156200052c57602002820191906000526020600020905b81546001600160a01b031681526001909101906020018083116200050d575b5050505050905090565b6000918252602082815260408084206001600160a01b0393909316845291905290205460ff1690565b60006200056c816200099d565b336001600160a01b03831603620005965760405163e6c4247b60e01b815260040160405180910390fd5b620003f060008362000a34565b6000620005b0816200099d565b60005b82811015620004cc576000848483818110620005d357620005d362000fa2565b9050602002016020810190620005ea919062000dee565b6001600160a01b03811660009081526002602052604090205490915060ff16156200066557806001600160a01b0316638456cb596040518163ffffffff1660e01b8152600401600060405180830381600087803b1580156200064b57600080fd5b505af115801562000660573d6000803e3d6000fd5b505050505b5080620006728162000fce565b915050620005b3565b600181815481106200068c57600080fd5b6000918252602090912001546001600160a01b0316905081565b600080620006b4816200099d565b6001600160a01b038616620006dc5760405163e6c4247b60e01b815260040160405180910390fd5b83511580620006ea57508251155b15620007095760405163e6c4247b60e01b815260040160405180910390fd5b6127106200071b602087018762000ffd565b61ffff1611156200073f5760405163e6c4247b60e01b815260040160405180910390fd5b62000751604086016020870162000ffd565b61ffff161580620007785750610e4262000772604087016020880162000ffd565b61ffff16115b15620007975760405163e6c4247b60e01b815260040160405180910390fd5b612710620007ac606087016040880162000ffd565b61ffff161115620007d05760405163e6c4247b60e01b815260040160405180910390fd5b612710620007e5608087016060880162000ffd565b61ffff161115620008095760405163e6c4247b60e01b815260040160405180910390fd5b60646200081d60a087016080880162000ffd565b61ffff161115620008415760405163e6c4247b60e01b815260040160405180910390fd5b85303030888888604051620008569062000cd4565b620008689796959493929190620010da565b604051809103906000f08015801562000885573d6000803e3d6000fd5b506001805480820182557fb10e2d527612073b26eecdfd717e6a320cf44b4afac2b0732d9fcbe2b7fa0cf60180546001600160a01b0319166001600160a01b0384811691821790925560008181526002602052604090819020805460ff191690941790935591519294508816917fa0311b346f66fad99cd0f6225b7c284d45cb2a0d343353395b50743c7fdddb4690620009219089906200114c565b60405180910390a350949350505050565b60006200093f816200099d565b6001600160a01b038216620009675760405163e6c4247b60e01b815260040160405180910390fd5b620003f0600083620009ac565b60008281526020819052604090206001015462000991816200099d565b62000369838362000a34565b620009a9813362000a9c565b50565b620009b8828262000536565b620003f0576000828152602081815260408083206001600160a01b03851684529091529020805460ff19166001179055620009f03390565b6001600160a01b0316816001600160a01b0316837f2f8788117e7eff1d82e926ec794901d17c78024a50270940304540a733656f0d60405160405180910390a45050565b62000a40828262000536565b15620003f0576000828152602081815260408083206001600160a01b0385168085529252808320805460ff1916905551339285917ff6391f5c32d9c69d2a47ea670b442974b53935d1edc7fd64eb21e047a839171b9190a45050565b62000aa8828262000536565b620003f05762000ab88162000b00565b62000ac583602062000b13565b60405160200162000ad89291906200115c565b60408051601f198184030181529082905262461bcd60e51b8252620003db91600401620011d5565b60606200033a6001600160a01b03831660145b6060600062000b24836002620011ea565b62000b3190600262001204565b67ffffffffffffffff81111562000b4c5762000b4c62000e5b565b6040519080825280601f01601f19166020018201604052801562000b77576020820181803683370190505b509050600360fc1b8160008151811062000b955762000b9562000fa2565b60200101906001600160f81b031916908160001a905350600f60fb1b8160018151811062000bc75762000bc762000fa2565b60200101906001600160f81b031916908160001a905350600062000bed846002620011ea565b62000bfa90600162001204565b90505b600181111562000c7c576f181899199a1a9b1b9c1cb0b131b232b360811b85600f166010811062000c325762000c3262000fa2565b1a60f81b82828151811062000c4b5762000c4b62000fa2565b60200101906001600160f81b031916908160001a90535060049490941c9362000c74816200121a565b905062000bfd565b50831562000ccd5760405162461bcd60e51b815260206004820181905260248201527f537472696e67733a20686578206c656e67746820696e73756666696369656e746044820152606401620003db565b9392505050565b613418806200123583390190565b60006020828403121562000cf557600080fd5b81356001600160e01b03198116811462000ccd57600080fd5b60006020828403121562000d2157600080fd5b5035919050565b80356001600160a01b038116811462000d4057600080fd5b919050565b6000806040838503121562000d5957600080fd5b8235915062000d6b6020840162000d28565b90509250929050565b6000806020838503121562000d8857600080fd5b823567ffffffffffffffff8082111562000da157600080fd5b818501915085601f83011262000db657600080fd5b81358181111562000dc657600080fd5b8660208260051b850101111562000ddc57600080fd5b60209290920196919550909350505050565b60006020828403121562000e0157600080fd5b62000ccd8262000d28565b6020808252825182820181905260009190848201906040850190845b8181101562000e4f5783516001600160a01b03168352928401929184019160010162000e28565b50909695505050505050565b634e487b7160e01b600052604160045260246000fd5b600082601f83011262000e8357600080fd5b813567ffffffffffffffff8082111562000ea15762000ea162000e5b565b604051601f8301601f19908116603f0116810190828211818310171562000ecc5762000ecc62000e5b565b8160405283815286602085880101111562000ee657600080fd5b836020870160208301376000602085830101528094505050505092915050565b60008060008084860361010081121562000f1f57600080fd5b62000f2a8662000d28565b945060a0601f198201121562000f3f57600080fd5b5060208501925060c085013567ffffffffffffffff8082111562000f6257600080fd5b62000f708883890162000e71565b935060e087013591508082111562000f8757600080fd5b5062000f968782880162000e71565b91505092959194509250565b634e487b7160e01b600052603260045260246000fd5b634e487b7160e01b600052601160045260246000fd5b60006001820162000fe35762000fe362000fb8565b5060010190565b803561ffff8116811462000d4057600080fd5b6000602082840312156200101057600080fd5b62000ccd8262000fea565b61ffff806200102a8362000fea565b168352806200103c6020840162000fea565b16602084015280620010516040840162000fea565b16604084015280620010666060840162000fea565b166060840152806200107b6080840162000fea565b166080840152505050565b60005b83811015620010a357818101518382015260200162001089565b50506000910152565b60008151808452620010c681602086016020860162001086565b601f01601f19169290920160200192915050565b6001600160a01b038881168252878116602083015286811660408301528516606082015260006101606200111260808401876200101b565b806101208401526200112781840186620010ac565b90508281036101408401526200113e8185620010ac565b9a9950505050505050505050565b60a081016200033a82846200101b565b7f416363657373436f6e74726f6c3a206163636f756e74200000000000000000008152600083516200119681601785016020880162001086565b7001034b99036b4b9b9b4b733903937b6329607d1b6017918401918201528351620011c981602884016020880162001086565b01602801949350505050565b60208152600062000ccd6020830184620010ac565b80820281158282048414176200033a576200033a62000fb8565b808201808211156200033a576200033a62000fb8565b6000816200122c576200122c62000fb8565b50600019019056fe6101006040523480156200001257600080fd5b50604051620034183803806200341883398101604081905262000035916200032f565b81816003620000458382620004f7565b506004620000548282620004f7565b50506001600555506006805460ff191690556001600160a01b03808816608090815287821660a05286821660c05290851660e0528351600880546020870151604088015160608901519589015161ffff908116680100000000000000000261ffff60401b1997821666010000000000000261ffff60301b19938316640100000000029390931663ffffffff60201b19948316620100000263ffffffff19909616929097169190911793909317919091169390931792909217929092161790556200012060003362000159565b6200014c7f241ecf16d79d0f8dbfb92cbc07fe17840425976cf0667f022fe9877caa831b083362000159565b50505050505050620005c3565b60008281526007602090815260408083206001600160a01b038516845290915290205460ff16620001fa5760008281526007602090815260408083206001600160a01b03851684529091529020805460ff19166001179055620001b93390565b6001600160a01b0316816001600160a01b0316837f2f8788117e7eff1d82e926ec794901d17c78024a50270940304540a733656f0d60405160405180910390a45b5050565b80516001600160a01b03811681146200021657600080fd5b919050565b634e487b7160e01b600052604160045260246000fd5b60405160a081016001600160401b03811182821017156200025657620002566200021b565b60405290565b604051601f8201601f191681016001600160401b03811182821017156200028757620002876200021b565b604052919050565b805161ffff811681146200021657600080fd5b600082601f830112620002b457600080fd5b81516001600160401b03811115620002d057620002d06200021b565b6020620002e6601f8301601f191682016200025c565b8281528582848701011115620002fb57600080fd5b60005b838110156200031b578581018301518282018401528201620002fe565b506000928101909101919091529392505050565b60008060008060008060008789036101608112156200034d57600080fd5b6200035889620001fe565b97506200036860208a01620001fe565b96506200037860408a01620001fe565b95506200038860608a01620001fe565b945060a0607f19820112156200039d57600080fd5b50620003a862000231565b620003b660808a016200028f565b8152620003c660a08a016200028f565b6020820152620003d960c08a016200028f565b6040820152620003ec60e08a016200028f565b6060820152620004006101008a016200028f565b60808201526101208901519093506001600160401b03808211156200042457600080fd5b620004328b838c01620002a2565b93506101408a01519150808211156200044a57600080fd5b50620004598a828b01620002a2565b91505092959891949750929550565b600181811c908216806200047d57607f821691505b6020821081036200049e57634e487b7160e01b600052602260045260246000fd5b50919050565b601f821115620004f257600081815260208120601f850160051c81016020861015620004cd5750805b601f850160051c820191505b81811015620004ee57828155600101620004d9565b5050505b505050565b81516001600160401b038111156200051357620005136200021b565b6200052b8162000524845462000468565b84620004a4565b602080601f8311600181146200056357600084156200054a5750858301515b600019600386901b1c1916600185901b178555620004ee565b600085815260208120601f198616915b82811015620005945788860151825594840194600190910190840162000573565b5085821015620005b35787850151600019600388901b60f8161c191681555b5050505050600190811b01905550565b60805160a05160c05160e051612d8f62000689600039600081816104840152818161144501526114af0152600081816104dc01528181610b330152818161155e015261178701526000818161058d01528181610c1201528181610d3501528181610dec01528181610fab01528181611228015281816112b7015281816113330152818161167001526116fd0152600081816102d7015281816108b701528181610e63015281816110d3015281816111dd0152818161142301526114800152612d8f6000f3fe608060405234801561001057600080fd5b506004361061025e5760003560e01c806370a0823111610146578063aadc1ac1116100c3578063d547741f11610087578063d547741f14610642578063d8aed14514610655578063dd62ed3e14610668578063e1d927c81461067b578063ec87621c1461068e578063f104686a146106a357600080fd5b8063aadc1ac114610575578063b3ccbcfe14610588578063b6b55f25146105af578063be4dc94f146105c2578063cff0ab96146105d557600080fd5b806395d89b411161010a57806395d89b411461052c578063a079a4dd14610534578063a217fddf14610547578063a457c2d71461054f578063a9059cbb1461056257600080fd5b806370a08231146104ae57806381e17840146104d75780638456cb59146104fe5780638d5d34291461050657806391d148541461051957600080fd5b80632f2ff15d116101df5780633f4ba83a116101a35780633f4ba83a146103ca57806348dc5893146103d25780635c975abb146103e55780635e615a6b146103f057806361d027b31461047f5780636e07302b146104a657600080fd5b80632f2ff15d1461036f578063313ce5671461038257806336568abe1461039157806339509351146103a45780633ec16194146103b757600080fd5b806322be3de11161022657806322be3de1146102d257806323b872dd14610311578063248a9ca31461032457806326e885e3146103475780632e1a7d4d1461035c57600080fd5b806301e1d1141461026357806301ffc9a71461027f57806306fdde03146102a2578063095ea7b3146102b757806318160ddd146102ca575b600080fd5b61026c60095481565b6040519081526020015b60405180910390f35b61029261028d366004612694565b6106b6565b6040519015158152602001610276565b6102aa6106ed565b60405161027691906126e2565b6102926102c536600461272a565b61077f565b60025461026c565b6102f97f000000000000000000000000000000000000000000000000000000000000000081565b6040516001600160a01b039091168152602001610276565b61029261031f366004612756565b610797565b61026c610332366004612797565b60009081526007602052604090206001015490565b61035a6103553660046127b0565b6107bb565b005b61035a61036a366004612797565b6107e2565b61035a61037d3660046127cd565b610928565b60405160128152602001610276565b61035a61039f3660046127cd565b610952565b6102926103b236600461272a565b6109d1565b61026c6103c5366004612797565b6109f3565b61035a610a28565b61026c6103e0366004612797565b610a48565b60065460ff16610292565b6104726040805160a081018252600080825260208201819052918101829052606081018290526080810191909152506040805160a08101825260085461ffff8082168352620100008204811660208401526401000000008204811693830193909352600160301b810483166060830152600160401b9004909116608082015290565b60405161027691906127fd565b6102f97f000000000000000000000000000000000000000000000000000000000000000081565b60095461026c565b61026c6104bc3660046127b0565b6001600160a01b031660009081526020819052604090205490565b6102f97f000000000000000000000000000000000000000000000000000000000000000081565b61035a610a72565b61026c610514366004612797565b610a92565b6102926105273660046127cd565b610cd2565b6102aa610cfd565b61035a610542366004612797565b610d0c565b61026c600081565b61029261055d36600461272a565b610eec565b61029261057036600461272a565b610f67565b61035a610583366004612797565b610f75565b6102f97f000000000000000000000000000000000000000000000000000000000000000081565b61035a6105bd366004612797565b61103e565b61035a6105d03660046127b0565b611155565b60085461060d9061ffff808216916201000081048216916401000000008204811691600160301b8104821691600160401b9091041685565b6040805161ffff968716815294861660208601529285169284019290925283166060830152909116608082015260a001610276565b61035a6106503660046127cd565b611178565b61026c610663366004612844565b61119d565b61026c610676366004612866565b61160c565b61035a610689366004612797565b611637565b61026c600080516020612d3a83398151915281565b61035a6106b1366004612894565b611817565b60006001600160e01b03198216637965db0b60e01b14806106e757506301ffc9a760e01b6001600160e01b03198316145b92915050565b6060600380546106fc906128ac565b80601f0160208091040260200160405190810160405280929190818152602001828054610728906128ac565b80156107755780601f1061074a57610100808354040283529160200191610775565b820191906000526020600020905b81548152906001019060200180831161075857829003601f168201915b5050505050905090565b60003361078d8185856118ce565b5060019392505050565b6000336107a58582856119f2565b6107b0858585611a6c565b506001949350505050565b60006107c681611c10565b6107de600080516020612d3a83398151915283611c1a565b5050565b6107ea611ca0565b6107f2611cf9565b80600003610813576040516365e52d5160e11b815260040160405180910390fd5b3360009081526020819052604090205481111561084357604051631e9acf1760e31b815260040160405180910390fd5b600061084e60025490565b60095461085b90846128f6565b610865919061290d565b90508060000361088857604051630686827b60e51b815260040160405180910390fd5b6108923383611d41565b80600960008282546108a4919061292f565b909155506108de90506001600160a01b037f0000000000000000000000000000000000000000000000000000000000000000163383611e73565b604080518381526020810183905233917f92ccf450a286a957af52509bc1c9939d1a6a481783e142e41e2499f0bb66ebc691015b60405180910390a2506109256001600555565b50565b60008281526007602052604090206001015461094381611c10565b61094d8383611c1a565b505050565b6001600160a01b03811633146109c75760405162461bcd60e51b815260206004820152602f60248201527f416363657373436f6e74726f6c3a2063616e206f6e6c792072656e6f756e636560448201526e103937b632b9903337b91039b2b63360891b60648201526084015b60405180910390fd5b6107de8282611ed6565b60003361078d8185856109e4838361160c565b6109ee9190612942565b6118ce565b60006109fe60025490565b600003610a09575090565b600954600254610a1990846128f6565b6106e7919061290d565b919050565b600080516020612d3a833981519152610a4081611c10565b610925611f3d565b6000610a5360025490565b600003610a6257506000919050565b600254600954610a1990846128f6565b600080516020612d3a833981519152610a8a81611c10565b610925611f8f565b6000610a9c611cf9565b81600003610abd576040516365e52d5160e11b815260040160405180910390fd5b60085460095461271091610ade9164010000000090910461ffff16906128f6565b610ae8919061290d565b821115610b085760405163037f3db160e11b815260040160405180910390fd5b600854600160401b900461ffff1615610bd957604051630d47875d60e41b81523360048201526000907f00000000000000000000000000000000000000000000000000000000000000006001600160a01b03169063d47875d090602401602060405180830381865afa158015610b82573d6000803e3d6000fd5b505050506040513d601f19601f82011682018060405250810190610ba69190612955565b600854909150600160401b900461ffff16811015610bd7576040516371de036760e01b815260040160405180910390fd5b505b6008546040516326aaa76b60e21b81523360048201526024810184905261ffff80831660448301526201000090920490911660648201527f00000000000000000000000000000000000000000000000000000000000000006001600160a01b031690639aaa9dac906084016020604051808303816000875af1158015610c63573d6000803e3d6000fd5b505050506040513d601f19601f82011682018060405250810190610c879190612955565b9050336001600160a01b0316817f97e04be2fd6414727fe9d0400464568f4384aa8b06264119565ca8f6cc2a4b7a84604051610cc591815260200190565b60405180910390a3919050565b60009182526007602090815260408084206001600160a01b0393909316845291905290205460ff1690565b6060600480546106fc906128ac565b610d14611ca0565b610d1c611cf9565b604051632820036560e11b8152600481018290526000907f00000000000000000000000000000000000000000000000000000000000000006001600160a01b03169063504006ca9060240161010060405180830381865afa158015610d85573d6000803e3d6000fd5b505050506040513d601f19601f82011682018060405250810190610da991906129b9565b80519091506001600160a01b03163314610dd65760405163baf3f0f760e01b815260040160405180910390fd5b60405163a079a4dd60e01b8152600481018390527f00000000000000000000000000000000000000000000000000000000000000006001600160a01b03169063a079a4dd90602401600060405180830381600087803b158015610e3857600080fd5b505af1158015610e4c573d6000803e3d6000fd5b5050506020820151610e8b91506001600160a01b037f000000000000000000000000000000000000000000000000000000000000000016903390611e73565b806020015160096000828254610ea1919061292f565b9091555050602081810151604051908152339184917fc62ee953da618bcc68fed468c3c85caff664703ca837d26dfe39ad31fac01a67910160405180910390a3506109256001600555565b60003381610efa828661160c565b905083811015610f5a5760405162461bcd60e51b815260206004820152602560248201527f45524332303a2064656372656173656420616c6c6f77616e63652062656c6f77604482015264207a65726f60d81b60648201526084016109be565b6107b082868684036118ce565b60003361078d818585611a6c565b600080516020612d3a833981519152610f8d81611c10565b610f95611cf9565b604051632dd67e5560e21b8152600481018390527f00000000000000000000000000000000000000000000000000000000000000006001600160a01b03169063b759f95490602401600060405180830381600087803b158015610ff757600080fd5b505af115801561100b573d6000803e3d6000fd5b50506040518492507f073e754af3e7d644af8000094f3c23bc20ef9c40cc057bffa060b0230adf00f49150600090a25050565b611046611ca0565b61104e611cf9565b8060000361106f576040516365e52d5160e11b815260040160405180910390fd5b600061107a60025490565b6000036110885750806110a5565b60095460025461109890846128f6565b6110a2919061290d565b90505b806000036110c6576040516365e52d5160e11b815260040160405180910390fd5b6110fb6001600160a01b037f000000000000000000000000000000000000000000000000000000000000000016333085611fcc565b816009600082825461110d9190612942565b9091555061111d90503382612004565b604080518381526020810183905233917f73a19dd210f1a7f902193214c0ee91dd35ee5b4d920cba8d519eca65a7b488ca9101610912565b600061116081611c10565b6107de600080516020612d3a83398151915283611ed6565b60008281526007602052604090206001015461119381611c10565b61094d8383611ed6565b60006111a7611ca0565b6111af611cf9565b816000036111d0576040516365e52d5160e11b815260040160405180910390fd5b6112056001600160a01b037f000000000000000000000000000000000000000000000000000000000000000016333085611fcc565b60405163bcb2966760e01b81526004810184905260009081906001600160a01b037f0000000000000000000000000000000000000000000000000000000000000000169063bcb2966790602401608060405180830381865afa15801561126f573d6000803e3d6000fd5b505050506040513d601f19601f820116820180604052508101906112939190612a70565b505060405163d8aed14560e01b8152600481018890526024810187905291935091507f00000000000000000000000000000000000000000000000000000000000000006001600160a01b03169063d8aed145906044016020604051808303816000875af1158015611308573d6000803e3d6000fd5b505050506040513d601f19601f8201168201806040525081019061132c9190612955565b92506000807f00000000000000000000000000000000000000000000000000000000000000006001600160a01b031663bcb29667886040518263ffffffff1660e01b815260040161137f91815260200190565b608060405180830381865afa15801561139c573d6000803e3d6000fd5b505050506040513d601f19601f820116820180604052508101906113c09190612a70565b505091509150600082856113d4919061292f565b905060006113e2838661292f565b6008549091506000906127109061140490600160301b900461ffff16846128f6565b61140e919061290d565b9050801561150b5761146a6001600160a01b037f0000000000000000000000000000000000000000000000000000000000000000167f0000000000000000000000000000000000000000000000000000000000000000836120c3565b604051622c4a6960e21b81526001600160a01b037f000000000000000000000000000000000000000000000000000000000000000081166004830152602482018390527f0000000000000000000000000000000000000000000000000000000000000000169062b129a490604401600060405180830381600087803b1580156114f257600080fd5b505af1158015611506573d6000803e3d6000fd5b505050505b6000611517828461292f565b90506115238185612942565b600960008282546115349190612942565b909155505060008990036115fa5760405163d3ec35b760e01b8152336004820152600f60248201527f00000000000000000000000000000000000000000000000000000000000000006001600160a01b03169063d3ec35b790604401600060405180830381600087803b1580156115aa57600080fd5b505af11580156115be573d6000803e3d6000fd5b50506040518c81523392508d91507f512d3e65b3e58c2187bb1872aa435dba5bd09c1c03823ba56ab70aac411e4a219060200160405180910390a35b50505050505050506106e76001600555565b6001600160a01b03918216600090815260016020908152604080832093909416825291909152205490565b600080516020612d3a83398151915261164f81611c10565b611657611cf9565b604051632820036560e11b8152600481018390526000907f00000000000000000000000000000000000000000000000000000000000000006001600160a01b03169063504006ca9060240161010060405180830381865afa1580156116c0573d6000803e3d6000fd5b505050506040513d601f19601f820116820180604052508101906116e491906129b9565b604051631c3b24f960e31b8152600481018590529091507f00000000000000000000000000000000000000000000000000000000000000006001600160a01b03169063e1d927c890602401600060405180830381600087803b15801561174957600080fd5b505af115801561175d573d6000803e3d6000fd5b50508251604051635a35893b60e11b81526001600160a01b039182166004820152601e60248201527f0000000000000000000000000000000000000000000000000000000000000000909116925063b46b12769150604401600060405180830381600087803b1580156117cf57600080fd5b505af11580156117e3573d6000803e3d6000fd5b50506040518592507f0789b7097e8066538cfaa1132488b132e14ba5f0c938c8b7aaf8cf40356aab0b9150600090a2505050565b600080516020612d3a83398151915261182f81611c10565b6040805160a0810182526008805461ffff8082168452620100008204811660208501526401000000008204811694840194909452600160301b810484166060840152600160401b9004909216608082015290839061188d8282612ab3565b9050507f70dc85460b875b246fa67ec9fee8ab6bc04b352f1ae05953498f7b03f683e2d081846040516118c1929190612b94565b60405180910390a1505050565b6001600160a01b0383166119305760405162461bcd60e51b8152602060048201526024808201527f45524332303a20617070726f76652066726f6d20746865207a65726f206164646044820152637265737360e01b60648201526084016109be565b6001600160a01b0382166119915760405162461bcd60e51b815260206004820152602260248201527f45524332303a20617070726f766520746f20746865207a65726f206164647265604482015261737360f01b60648201526084016109be565b6001600160a01b0383811660008181526001602090815260408083209487168084529482529182902085905590518481527f8c5be1e5ebec7d5bd14f71427d1e84f3dd0314c0f7b2291e5b200ac8c7c3b925910160405180910390a3505050565b60006119fe848461160c565b90506000198114611a665781811015611a595760405162461bcd60e51b815260206004820152601d60248201527f45524332303a20696e73756666696369656e7420616c6c6f77616e636500000060448201526064016109be565b611a6684848484036118ce565b50505050565b6001600160a01b038316611ad05760405162461bcd60e51b815260206004820152602560248201527f45524332303a207472616e736665722066726f6d20746865207a65726f206164604482015264647265737360d81b60648201526084016109be565b6001600160a01b038216611b325760405162461bcd60e51b815260206004820152602360248201527f45524332303a207472616e7366657220746f20746865207a65726f206164647260448201526265737360e81b60648201526084016109be565b6001600160a01b03831660009081526020819052604090205481811015611baa5760405162461bcd60e51b815260206004820152602660248201527f45524332303a207472616e7366657220616d6f756e7420657863656564732062604482015265616c616e636560d01b60648201526084016109be565b6001600160a01b03848116600081815260208181526040808320878703905593871680835291849020805487019055925185815290927fddf252ad1be2c89b69c2b068fc378daa952ba7f163c4a11628f55a4df523b3ef910160405180910390a3611a66565b61092581336121d8565b611c248282610cd2565b6107de5760008281526007602090815260408083206001600160a01b03851684529091529020805460ff19166001179055611c5c3390565b6001600160a01b0316816001600160a01b0316837f2f8788117e7eff1d82e926ec794901d17c78024a50270940304540a733656f0d60405160405180910390a45050565b600260055403611cf25760405162461bcd60e51b815260206004820152601f60248201527f5265656e7472616e637947756172643a207265656e7472616e742063616c6c0060448201526064016109be565b6002600555565b60065460ff1615611d3f5760405162461bcd60e51b815260206004820152601060248201526f14185d5cd8589b194e881c185d5cd95960821b60448201526064016109be565b565b6001600160a01b038216611da15760405162461bcd60e51b815260206004820152602160248201527f45524332303a206275726e2066726f6d20746865207a65726f206164647265736044820152607360f81b60648201526084016109be565b6001600160a01b03821660009081526020819052604090205481811015611e155760405162461bcd60e51b815260206004820152602260248201527f45524332303a206275726e20616d6f756e7420657863656564732062616c616e604482015261636560f01b60648201526084016109be565b6001600160a01b0383166000818152602081815260408083208686039055600280548790039055518581529192917fddf252ad1be2c89b69c2b068fc378daa952ba7f163c4a11628f55a4df523b3ef910160405180910390a3505050565b6040516001600160a01b03831660248201526044810182905261094d90849063a9059cbb60e01b906064015b60408051601f198184030181529190526020810180516001600160e01b03166001600160e01b031990931692909217909152612231565b611ee08282610cd2565b156107de5760008281526007602090815260408083206001600160a01b0385168085529252808320805460ff1916905551339285917ff6391f5c32d9c69d2a47ea670b442974b53935d1edc7fd64eb21e047a839171b9190a45050565b611f45612306565b6006805460ff191690557f5db9ee0a495bf2e6ff9c91a7834c1ba4fdd244a5e8aa4e537bd38aeae4b073aa335b6040516001600160a01b03909116815260200160405180910390a1565b611f97611cf9565b6006805460ff191660011790557f62e78cea01bee320cd4e420270b5ea74000d11b0c9f74754ebdbfc544b05a258611f723390565b6040516001600160a01b0380851660248301528316604482015260648101829052611a669085906323b872dd60e01b90608401611e9f565b6001600160a01b03821661205a5760405162461bcd60e51b815260206004820152601f60248201527f45524332303a206d696e7420746f20746865207a65726f20616464726573730060448201526064016109be565b806002600082825461206c9190612942565b90915550506001600160a01b038216600081815260208181526040808320805486019055518481527fddf252ad1be2c89b69c2b068fc378daa952ba7f163c4a11628f55a4df523b3ef910160405180910390a35050565b80158061213d5750604051636eb1769f60e11b81523060048201526001600160a01b03838116602483015284169063dd62ed3e90604401602060405180830381865afa158015612117573d6000803e3d6000fd5b505050506040513d601f19601f8201168201806040525081019061213b9190612955565b155b6121a85760405162461bcd60e51b815260206004820152603660248201527f5361666545524332303a20617070726f76652066726f6d206e6f6e2d7a65726f60448201527520746f206e6f6e2d7a65726f20616c6c6f77616e636560501b60648201526084016109be565b6040516001600160a01b03831660248201526044810182905261094d90849063095ea7b360e01b90606401611e9f565b6121e28282610cd2565b6107de576121ef8161234f565b6121fa836020612361565b60405160200161220b929190612c59565b60408051601f198184030181529082905262461bcd60e51b82526109be916004016126e2565b6000612286826040518060400160405280602081526020017f5361666545524332303a206c6f772d6c6576656c2063616c6c206661696c6564815250856001600160a01b03166125049092919063ffffffff16565b90508051600014806122a75750808060200190518101906122a79190612cce565b61094d5760405162461bcd60e51b815260206004820152602a60248201527f5361666545524332303a204552433230206f7065726174696f6e20646964206e6044820152691bdd081cdd58d8d9595960b21b60648201526084016109be565b60065460ff16611d3f5760405162461bcd60e51b815260206004820152601460248201527314185d5cd8589b194e881b9bdd081c185d5cd95960621b60448201526064016109be565b60606106e76001600160a01b03831660145b606060006123708360026128f6565b61237b906002612942565b67ffffffffffffffff8111156123935761239361296e565b6040519080825280601f01601f1916602001820160405280156123bd576020820181803683370190505b509050600360fc1b816000815181106123d8576123d8612cf0565b60200101906001600160f81b031916908160001a905350600f60fb1b8160018151811061240757612407612cf0565b60200101906001600160f81b031916908160001a905350600061242b8460026128f6565b612436906001612942565b90505b60018111156124ae576f181899199a1a9b1b9c1cb0b131b232b360811b85600f166010811061246a5761246a612cf0565b1a60f81b82828151811061248057612480612cf0565b60200101906001600160f81b031916908160001a90535060049490941c936124a781612d06565b9050612439565b5083156124fd5760405162461bcd60e51b815260206004820181905260248201527f537472696e67733a20686578206c656e67746820696e73756666696369656e7460448201526064016109be565b9392505050565b6060612513848460008561251b565b949350505050565b60608247101561257c5760405162461bcd60e51b815260206004820152602660248201527f416464726573733a20696e73756666696369656e742062616c616e636520666f6044820152651c8818d85b1b60d21b60648201526084016109be565b600080866001600160a01b031685876040516125989190612d1d565b60006040518083038185875af1925050503d80600081146125d5576040519150601f19603f3d011682016040523d82523d6000602084013e6125da565b606091505b50915091506125eb878383876125f6565b979650505050505050565b6060831561266557825160000361265e576001600160a01b0385163b61265e5760405162461bcd60e51b815260206004820152601d60248201527f416464726573733a2063616c6c20746f206e6f6e2d636f6e747261637400000060448201526064016109be565b5081612513565b612513838381511561267a5781518083602001fd5b8060405162461bcd60e51b81526004016109be91906126e2565b6000602082840312156126a657600080fd5b81356001600160e01b0319811681146124fd57600080fd5b60005b838110156126d95781810151838201526020016126c1565b50506000910152565b60208152600082518060208401526127018160408501602087016126be565b601f01601f19169190910160400192915050565b6001600160a01b038116811461092557600080fd5b6000806040838503121561273d57600080fd5b823561274881612715565b946020939093013593505050565b60008060006060848603121561276b57600080fd5b833561277681612715565b9250602084013561278681612715565b929592945050506040919091013590565b6000602082840312156127a957600080fd5b5035919050565b6000602082840312156127c257600080fd5b81356124fd81612715565b600080604083850312156127e057600080fd5b8235915060208301356127f281612715565b809150509250929050565b60a081016106e7828461ffff808251168352806020830151166020840152806040830151166040840152806060830151166060840152806080830151166080840152505050565b6000806040838503121561285757600080fd5b50508035926020909101359150565b6000806040838503121561287957600080fd5b823561288481612715565b915060208301356127f281612715565b600060a082840312156128a657600080fd5b50919050565b600181811c908216806128c057607f821691505b6020821081036128a657634e487b7160e01b600052602260045260246000fd5b634e487b7160e01b600052601160045260246000fd5b80820281158282048414176106e7576106e76128e0565b60008261292a57634e487b7160e01b600052601260045260246000fd5b500490565b818103818111156106e7576106e76128e0565b808201808211156106e7576106e76128e0565b60006020828403121561296757600080fd5b5051919050565b634e487b7160e01b600052604160045260246000fd5b8051610a2381612715565b61ffff8116811461092557600080fd5b8051610a238161298f565b805160058110610a2357600080fd5b60006101008083850312156129cd57600080fd5b6040519081019067ffffffffffffffff821181831017156129fe57634e487b7160e01b600052604160045260246000fd5b81604052612a0b84612984565b815260208401516020820152604084015160408201526060840151606082015260808401516080820152612a4160a0850161299f565b60a0820152612a5260c0850161299f565b60c0820152612a6360e085016129aa565b60e0820152949350505050565b60008060008060808587031215612a8657600080fd5b505082516020840151604085015160609095015191969095509092509050565b600081356106e78161298f565b8135612abe8161298f565b61ffff8116905081548161ffff1982161783556020840135612adf8161298f565b63ffff00008160101b169050808363ffffffff198416171784556040850135612b078161298f565b65ffff000000008160201b1690508365ffffffffffff1984161793508084831717855560608601359250612b3a8361298f565b67ffff0000000000008360301b1667ffff00000000000019851683178217178555505050506107de612b6e60808401612aa6565b825469ffff0000000000000000191660409190911b69ffff000000000000000016178255565b6101408101612bdc828561ffff808251168352806020830151166020840152806040830151166040840152806060830151166060840152806080830151166080840152505050565b8235612be78161298f565b61ffff90811660a0840152602084013590612c018261298f565b90811660c0840152604084013590612c188261298f565b90811660e0840152606084013590612c2f8261298f565b908116610100840152608084013590612c478261298f565b80821661012085015250509392505050565b7f416363657373436f6e74726f6c3a206163636f756e7420000000000000000000815260008351612c918160178501602088016126be565b7001034b99036b4b9b9b4b733903937b6329607d1b6017918401918201528351612cc28160288401602088016126be565b01602801949350505050565b600060208284031215612ce057600080fd5b815180151581146124fd57600080fd5b634e487b7160e01b600052603260045260246000fd5b600081612d1557612d156128e0565b506000190190565b60008251612d2f8184602087016126be565b919091019291505056fe241ecf16d79d0f8dbfb92cbc07fe17840425976cf0667f022fe9877caa831b08a2646970667358221220d2371b281af607c10606c912d0473afada9911028638b014e31249ddd7d0ae7b64736f6c63430008110033a26469706673582212201e154cb51757e6ef8706badb3564654fea0ad5f9f46df1f41e2fcc74488878a764736f6c63430008110033",
  "devdoc": {
    "details": "Factory contract for creating MicroCredit pools",
    "kind": "dev",
    "methods": {
      "createPool(address,(uint16,uint16,uint16,uint16,uint16),string,string)": {
        "details": "Create a new MicroCredit pool",
        "params": {
          "name": "Name for the LP token",
          "params": "Pool configuration parameters",
          "stable": "Address of the stablecoin (e.g., USDC)",
          "symbol": "Symbol for the LP token"
        },
        "returns": {
          "pool": "Address of the created pool"
        }
      },
      "getPoolCount()": {
        "details": "Get pool count",
        "returns": {
          "_0": "Total number of pools created"
        }
      },
      "getPools()": {
        "details": "Get all created pools",
        "returns": {
          "_0": "Array of pool addresses"
        }
      },
      "getRoleAdmin(bytes32)": {
        "details": "Returns the admin role that controls `role`. See {grantRole} and {revokeRole}. To change a role's admin, use {_setRoleAdmin}."
      },
      "grantAdminRole(address)": {
        "details": "Grant DEFAULT_ADMIN_ROLE to an address",
        "params": {
          "admin": "Address to grant the role to"
        }
      },
      "grantRole(bytes32,address)": {
        "details": "Grants `role` to `account`. If `account` had not been already granted `role`, emits a {RoleGranted} event. Requirements: - the caller must have ``role``'s admin role. May emit a {RoleGranted} event."
      },
      "hasRole(bytes32,address)": {
        "details": "Returns `true` if `account` has been granted `role`."
      },
      "isValidPool(address)": {
        "details": "Check if an address is a valid pool",
        "params": {
          "pool": "Address to check"
        },
        "returns": {
          "_0": "True if the address is a valid pool"
        }
      },
      "pausePools(address[])": {
        "details": "Pause all pools (emergency function)",
        "params": {
          "poolAddresses": "Array of pool addresses to pause"
        }
      },
      "renounceRole(bytes32,address)": {
        "details": "Revokes `role` from the calling account. Roles are often managed via {grantRole} and {revokeRole}: this function's purpose is to provide a mechanism for accounts to lose their privileges if they are compromised (such as when a trusted device is misplaced). If the calling account had been revoked `role`, emits a {RoleRevoked} event. Requirements: - the caller must be `account`. May emit a {RoleRevoked} event."
      },
      "revokeAdminRole(address)": {
        "details": "Revoke DEFAULT_ADMIN_ROLE from an address",
        "params": {
          "admin": "Address to revoke the role from"
        }
      },
      "revokeRole(bytes32,address)": {
        "details": "Revokes `role` from `account`. If `account` had been granted `role`, emits a {RoleRevoked} event. Requirements: - the caller must have ``role``'s admin role. May emit a {RoleRevoked} event."
      },
      "supportsInterface(bytes4)": {
        "details": "See {IERC165-supportsInterface}."
      },
      "unpausePools(address[])": {
        "details": "Unpause all pools",
        "params": {
          "poolAddresses": "Array of pool addresses to unpause"
        }
      }
    },
    "title": "MicroCreditPoolFactory",
    "version": 1
  },
  "userdoc": {
    "kind": "user",
    "methods": {},
    "version": 1
  },
  "storageLayout": {
    "storage": [
      {
        "astId": 24,
        "contract": "contracts/MicroCreditPoolFactory.sol:MicroCreditPoolFactory",
        "label": "_roles",
        "offset": 0,
        "slot": "0",
        "type": "t_mapping(t_bytes32,t_struct(RoleData)19_storage)"
      },
      {
        "astId": 4091,
        "contract": "contracts/MicroCreditPoolFactory.sol:MicroCreditPoolFactory",
        "label": "pools",
        "offset": 0,
        "slot": "1",
        "type": "t_array(t_address)dyn_storage"
      },
      {
        "astId": 4095,
        "contract": "contracts/MicroCreditPoolFactory.sol:MicroCreditPoolFactory",
        "label": "isPool",
        "offset": 0,
        "slot": "2",
        "type": "t_mapping(t_address,t_bool)"
      }
    ],
    "types": {
      "t_address": {
        "encoding": "inplace",
        "label": "address",
        "numberOfBytes": "20"
      },
      "t_array(t_address)dyn_storage": {
        "base": "t_address",
        "encoding": "dynamic_array",
        "label": "address[]",
        "numberOfBytes": "32"
      },
      "t_bool": {
        "encoding": "inplace",
        "label": "bool",
        "numberOfBytes": "1"
      },
      "t_bytes32": {
        "encoding": "inplace",
        "label": "bytes32",
        "numberOfBytes": "32"
      },
      "t_mapping(t_address,t_bool)": {
        "encoding": "mapping",
        "key": "t_address",
        "label": "mapping(address => bool)",
        "numberOfBytes": "32",
        "value": "t_bool"
      },
      "t_mapping(t_bytes32,t_struct(RoleData)19_storage)": {
        "encoding": "mapping",
        "key": "t_bytes32",
        "label": "mapping(bytes32 => struct AccessControl.RoleData)",
        "numberOfBytes": "32",
        "value": "t_struct(RoleData)19_storage"
      },
      "t_struct(RoleData)19_storage": {
        "encoding": "inplace",
        "label": "struct AccessControl.RoleData",
        "members": [
          {
            "astId": 16,
            "contract": "contracts/MicroCreditPoolFactory.sol:MicroCreditPoolFactory",
            "label": "members",
            "offset": 0,
            "slot": "0",
            "type": "t_mapping(t_address,t_bool)"
          },
          {
            "astId": 18,
            "contract": "contracts/MicroCreditPoolFactory.sol:MicroCreditPoolFactory",
            "label": "adminRole",
            "offset": 0,
            "slot": "1",
            "type": "t_bytes32"
          }
        ],
        "numberOfBytes": "64"
      }
    }
  }
}