{
  "address": "0xf7596AEAc4515350B100048Edc4F6FeB02F604Df",
  "abi": [
    {
      "inputs": [],
      "stateMutability": "nonpayable",
      "type": "constructor"
    },
    {
      "inputs": [],
      "name": "AmountZero",
      "type": "error"
    },
    {
      "inputs": [],
      "name": "InsufficientBalance",
      "type": "error"
    },
    {
      "inputs": [],
      "name": "TransferFailed",
      "type": "error"
    },
    {
      "anonymous": false,
      "inputs": [
        {
          "indexed": true,
          "internalType": "address",
          "name": "token",
          "type": "address"
        },
        {
          "indexed": true,
          "internalType": "address",
          "name": "to",
          "type": "address"
        },
        {
          "indexed": false,
          "internalType": "uint256",
          "name": "amount",
          "type": "uint256"
        }
      ],
      "name": "Claimed",
      "type": "event"
    },
    {
      "anonymous": false,
      "inputs": [
        {
          "indexed": true,
          "internalType": "address",
          "name": "token",
          "type": "address"
        },
        {
          "indexed": false,
          "internalType": "uint256",
          "name": "amount",
          "type": "uint256"
        }
      ],
      "name": "FeesReceived",
      "type": "event"
    },
    {
      "anonymous": false,
      "inputs": [
        {
          "indexed": true,
          "internalType": "bytes32",
          "name": "role",
          "type": "bytes32"
        },
        {
          "indexed": true,
          "internalType": "bytes32",
          "name": "previousAdminRole",
          "type": "bytes32"
        },
        {
          "indexed": true,
          "internalType": "bytes32",
          "name": "newAdminRole",
          "type": "bytes32"
        }
      ],
      "name": "RoleAdminChanged",
      "type": "event"
    },
    {
      "anonymous": false,
      "inputs": [
        {
          "indexed": true,
          "internalType": "bytes32",
          "name": "role",
          "type": "bytes32"
        },
        {
          "indexed": true,
          "internalType": "address",
          "name": "account",
          "type": "address"
        },
        {
          "indexed": true,
          "internalType": "address",
          "name": "sender",
          "type": "address"
        }
      ],
      "name": "RoleGranted",
      "type": "event"
    },
    {
      "anonymous": false,
      "inputs": [
        {
          "indexed": true,
          "internalType": "bytes32",
          "name": "role",
          "type": "bytes32"
        },
        {
          "indexed": true,
          "internalType": "address",
          "name": "account",
          "type": "address"
        },
        {
          "indexed": true,
          "internalType": "address",
          "name": "sender",
          "type": "address"
        }
      ],
      "name": "RoleRevoked",
      "type": "event"
    },
    {
      "inputs": [],
      "name": "DEFAULT_ADMIN_ROLE",
      "outputs": [
        {
          "internalType": "bytes32",
          "name": "",
          "type": "bytes32"
        }
      ],
      "stateMutability": "view",
      "type": "function"
    },
    {
      "inputs": [],
      "name": "POOL_ROLE",
      "outputs": [
        {
          "internalType": "bytes32",
          "name": "",
          "type": "bytes32"
        }
      ],
      "stateMutability": "view",
      "type": "function"
    },
    {
      "inputs": [],
      "name": "TREASURY_ADMIN_ROLE",
      "outputs": [
        {
          "internalType": "bytes32",
          "name": "",
          "type": "bytes32"
        }
      ],
      "stateMutability": "view",
      "type": "function"
    },
    {
      "inputs": [
        {
          "internalType": "address",
          "name": "token",
          "type": "address"
        }
      ],
      "name": "balanceOf",
      "outputs": [
        {
          "internalType": "uint256",
          "name": "",
          "type": "uint256"
        }
      ],
      "stateMutability": "view",
      "type": "function"
    },
    {
      "inputs": [
        {
          "internalType": "address",
          "name": "token",
          "type": "address"
        },
        {
          "internalType": "address",
          "name": "to",
          "type": "address"
        },
        {
          "internalType": "uint256",
          "name": "amount",
          "type": "uint256"
        }
      ],
      "name": "claim",
      "outputs": [],
      "stateMutability": "nonpayable",
      "type": "function"
    },
    {
      "inputs": [
        {
          "internalType": "bytes32",
          "name": "role",
          "type": "bytes32"
        }
      ],
      "name": "getRoleAdmin",
      "outputs": [
        {
          "internalType": "bytes32",
          "name": "",
          "type": "bytes32"
        }
      ],
      "stateMutability": "view",
      "type": "function"
    },
    {
      "inputs": [
        {
          "internalType": "address",
          "name": "pool",
          "type": "address"
        }
      ],
      "name": "grantPoolRole",
      "outputs": [],
      "stateMutability": "nonpayable",
      "type": "function"
    },
    {
      "inputs": [
        {
          "internalType": "bytes32",
          "name": "role",
          "type": "bytes32"
        },
        {
          "internalType": "address",
          "name": "account",
          "type": "address"
        }
      ],
      "name": "grantRole",
      "outputs": [],
      "stateMutability": "nonpayable",
      "type": "function"
    },
    {
      "inputs": [
        {
          "internalType": "address",
          "name": "admin",
          "type": "address"
        }
      ],
      "name": "grantTreasuryAdminRole",
      "outputs": [],
      "stateMutability": "nonpayable",
      "type": "function"
    },
    {
      "inputs": [
        {
          "internalType": "bytes32",
          "name": "role",
          "type": "bytes32"
        },
        {
          "internalType": "address",
          "name": "account",
          "type": "address"
        }
      ],
      "name": "hasRole",
      "outputs": [
        {
          "internalType": "bool",
          "name": "",
          "type": "bool"
        }
      ],
      "stateMutability": "view",
      "type": "function"
    },
    {
      "inputs": [
        {
          "internalType": "address",
          "name": "token",
          "type": "address"
        },
        {
          "internalType": "uint256",
          "name": "amount",
          "type": "uint256"
        }
      ],
      "name": "receiveFees",
      "outputs": [],
      "stateMutability": "nonpayable",
      "type": "function"
    },
    {
      "inputs": [
        {
          "internalType": "bytes32",
          "name": "role",
          "type": "bytes32"
        },
        {
          "internalType": "address",
          "name": "account",
          "type": "address"
        }
      ],
      "name": "renounceRole",
      "outputs": [],
      "stateMutability": "nonpayable",
      "type": "function"
    },
    {
      "inputs": [
        {
          "internalType": "address",
          "name": "pool",
          "type": "address"
        }
      ],
      "name": "revokePoolRole",
      "outputs": [],
      "stateMutability": "nonpayable",
      "type": "function"
    },
    {
      "inputs": [
        {
          "internalType": "bytes32",
          "name": "role",
          "type": "bytes32"
        },
        {
          "internalType": "address",
          "name": "account",
          "type": "address"
        }
      ],
      "name": "revokeRole",
      "outputs": [],
      "stateMutability": "nonpayable",
      "type": "function"
    },
    {
      "inputs": [
        {
          "internalType": "address",
          "name": "admin",
          "type": "address"
        }
      ],
      "name": "revokeTreasuryAdminRole",
      "outputs": [],
      "stateMutability": "nonpayable",
      "type": "function"
    },
    {
      "inputs": [
        {
          "internalType": "bytes4",
          "name": "interfaceId",
          "type": "bytes4"
        }
      ],
      "name": "supportsInterface",
      "outputs": [
        {
          "internalType": "bool",
          "name": "",
          "type": "bool"
        }
      ],
      "stateMutability": "view",
      "type": "function"
    }
  ],
  "transactionHash": "0x90ee6770e0c0be68e0a593de0b18faa02ffd4f60584d03086152da4268752a00",
  "args": [],
  "numDeployments": 1,
  "solcInputHash": "c14bed1eb806eaaa7eb886dd2234c247",
  "bytecode": "0x608060405234801561001057600080fd5b5061001c60003361004b565b6100467f4ba1c0b393f1850d2175b0f2d7c2d42c3f898b0037de3434dbcee26a67c6df663361004b565b6100ea565b6000828152602081815260408083206001600160a01b038516845290915290205460ff166100e6576000828152602081815260408083206001600160a01b03851684529091529020805460ff191660011790556100a53390565b6001600160a01b0316816001600160a01b0316837f2f8788117e7eff1d82e926ec794901d17c78024a50270940304540a733656f0d60405160405180910390a45b5050565b610f82806100f96000396000f3fe608060405234801561001057600080fd5b50600436106100ff5760003560e01c806370a0823111610097578063a217fddf11610066578063a217fddf14610221578063d547741f14610229578063e5b4003b1461023c578063fa404e341461024f57600080fd5b806370a08231146101d55780637a47582f146101e857806391d14854146101fb578063996cba681461020e57600080fd5b80632f2ff15d116100d35780632f2ff15d1461018757806336568abe1461019a578063404ccd07146101ad5780636b95a233146101c257600080fd5b8062b129a41461010457806301ffc9a7146101195780630d10907014610141578063248a9ca314610164575b600080fd5b610117610112366004610c76565b610262565b005b61012c610127366004610ca0565b6102f8565b60405190151581526020015b60405180910390f35b610156600080516020610f2d83398151915281565b604051908152602001610138565b610156610172366004610cca565b60009081526020819052604090206001015490565b610117610195366004610ce3565b61032f565b6101176101a8366004610ce3565b610359565b610156600080516020610f0d83398151915281565b6101176101d0366004610d0f565b6103dc565b6101566101e3366004610d0f565b6103ff565b6101176101f6366004610d0f565b61046a565b61012c610209366004610ce3565b61048d565b61011761021c366004610d2a565b6104b6565b610156600081565b610117610237366004610ce3565b6105e5565b61011761024a366004610d0f565b61060a565b61011761025d366004610d0f565b61062d565b600080516020610f0d83398151915261027a81610650565b8160000361029b576040516365e52d5160e11b815260040160405180910390fd5b6102b06001600160a01b03841633308561065d565b826001600160a01b03167f2ccfc58c2cef4ee590b5f16be0548cc54afc12e1c66a67b362b7d640fd16bb2d836040516102eb91815260200190565b60405180910390a2505050565b60006001600160e01b03198216637965db0b60e01b148061032957506301ffc9a760e01b6001600160e01b03198316145b92915050565b60008281526020819052604090206001015461034a81610650565b61035483836106ce565b505050565b6001600160a01b03811633146103ce5760405162461bcd60e51b815260206004820152602f60248201527f416363657373436f6e74726f6c3a2063616e206f6e6c792072656e6f756e636560448201526e103937b632b9903337b91039b2b63360891b60648201526084015b60405180910390fd5b6103d88282610752565b5050565b60006103e781610650565b6103d8600080516020610f2d833981519152836106ce565b6040516370a0823160e01b81523060048201526000906001600160a01b038316906370a0823190602401602060405180830381865afa158015610446573d6000803e3d6000fd5b505050506040513d601f19601f820116820180604052508101906103299190610d66565b600061047581610650565b6103d8600080516020610f2d83398151915283610752565b6000918252602082815260408084206001600160a01b0393909316845291905290205460ff1690565b600080516020610f2d8339815191526104ce81610650565b816000036104ef576040516365e52d5160e11b815260040160405180910390fd5b6040516370a0823160e01b81523060048201526000906001600160a01b038616906370a0823190602401602060405180830381865afa158015610536573d6000803e3d6000fd5b505050506040513d601f19601f8201168201806040525081019061055a9190610d66565b90508083111561057d57604051631e9acf1760e31b815260040160405180910390fd5b6105916001600160a01b03861685856107b7565b836001600160a01b0316856001600160a01b03167ff7a40077ff7a04c7e61f6f26fb13774259ddf1b6bce9ecf26a8276cdd3992683856040516105d691815260200190565b60405180910390a35050505050565b60008281526020819052604090206001015461060081610650565b6103548383610752565b600061061581610650565b6103d8600080516020610f0d833981519152836106ce565b600061063881610650565b6103d8600080516020610f0d83398151915283610752565b61065a81336107e7565b50565b6040516001600160a01b03808516602483015283166044820152606481018290526106c89085906323b872dd60e01b906084015b60408051601f198184030181529190526020810180516001600160e01b03166001600160e01b031990931692909217909152610840565b50505050565b6106d8828261048d565b6103d8576000828152602081815260408083206001600160a01b03851684529091529020805460ff1916600117905561070e3390565b6001600160a01b0316816001600160a01b0316837f2f8788117e7eff1d82e926ec794901d17c78024a50270940304540a733656f0d60405160405180910390a45050565b61075c828261048d565b156103d8576000828152602081815260408083206001600160a01b0385168085529252808320805460ff1916905551339285917ff6391f5c32d9c69d2a47ea670b442974b53935d1edc7fd64eb21e047a839171b9190a45050565b6040516001600160a01b03831660248201526044810182905261035490849063a9059cbb60e01b90606401610691565b6107f1828261048d565b6103d8576107fe81610915565b610809836020610927565b60405160200161081a929190610da3565b60408051601f198184030181529082905262461bcd60e51b82526103c591600401610e18565b6000610895826040518060400160405280602081526020017f5361666545524332303a206c6f772d6c6576656c2063616c6c206661696c6564815250856001600160a01b0316610aca9092919063ffffffff16565b90508051600014806108b65750808060200190518101906108b69190610e4b565b6103545760405162461bcd60e51b815260206004820152602a60248201527f5361666545524332303a204552433230206f7065726174696f6e20646964206e6044820152691bdd081cdd58d8d9595960b21b60648201526084016103c5565b60606103296001600160a01b03831660145b60606000610936836002610e83565b610941906002610e9a565b67ffffffffffffffff81111561095957610959610ead565b6040519080825280601f01601f191660200182016040528015610983576020820181803683370190505b509050600360fc1b8160008151811061099e5761099e610ec3565b60200101906001600160f81b031916908160001a905350600f60fb1b816001815181106109cd576109cd610ec3565b60200101906001600160f81b031916908160001a90535060006109f1846002610e83565b6109fc906001610e9a565b90505b6001811115610a74576f181899199a1a9b1b9c1cb0b131b232b360811b85600f1660108110610a3057610a30610ec3565b1a60f81b828281518110610a4657610a46610ec3565b60200101906001600160f81b031916908160001a90535060049490941c93610a6d81610ed9565b90506109ff565b508315610ac35760405162461bcd60e51b815260206004820181905260248201527f537472696e67733a20686578206c656e67746820696e73756666696369656e7460448201526064016103c5565b9392505050565b6060610ad98484600085610ae1565b949350505050565b606082471015610b425760405162461bcd60e51b815260206004820152602660248201527f416464726573733a20696e73756666696369656e742062616c616e636520666f6044820152651c8818d85b1b60d21b60648201526084016103c5565b600080866001600160a01b03168587604051610b5e9190610ef0565b60006040518083038185875af1925050503d8060008114610b9b576040519150601f19603f3d011682016040523d82523d6000602084013e610ba0565b606091505b5091509150610bb187838387610bbc565b979650505050505050565b60608315610c2b578251600003610c24576001600160a01b0385163b610c245760405162461bcd60e51b815260206004820152601d60248201527f416464726573733a2063616c6c20746f206e6f6e2d636f6e747261637400000060448201526064016103c5565b5081610ad9565b610ad98383815115610c405781518083602001fd5b8060405162461bcd60e51b81526004016103c59190610e18565b80356001600160a01b0381168114610c7157600080fd5b919050565b60008060408385031215610c8957600080fd5b610c9283610c5a565b946020939093013593505050565b600060208284031215610cb257600080fd5b81356001600160e01b031981168114610ac357600080fd5b600060208284031215610cdc57600080fd5b5035919050565b60008060408385031215610cf657600080fd5b82359150610d0660208401610c5a565b90509250929050565b600060208284031215610d2157600080fd5b610ac382610c5a565b600080600060608486031215610d3f57600080fd5b610d4884610c5a565b9250610d5660208501610c5a565b9150604084013590509250925092565b600060208284031215610d7857600080fd5b5051919050565b60005b83811015610d9a578181015183820152602001610d82565b50506000910152565b7f416363657373436f6e74726f6c3a206163636f756e7420000000000000000000815260008351610ddb816017850160208801610d7f565b7001034b99036b4b9b9b4b733903937b6329607d1b6017918401918201528351610e0c816028840160208801610d7f565b01602801949350505050565b6020815260008251806020840152610e37816040850160208701610d7f565b601f01601f19169190910160400192915050565b600060208284031215610e5d57600080fd5b81518015158114610ac357600080fd5b634e487b7160e01b600052601160045260246000fd5b808202811582820484141761032957610329610e6d565b8082018082111561032957610329610e6d565b634e487b7160e01b600052604160045260246000fd5b634e487b7160e01b600052603260045260246000fd5b600081610ee857610ee8610e6d565b506000190190565b60008251610f02818460208701610d7f565b919091019291505056feb8179c2726c8d8961ef054875ab3f4c1c3d34e1cb429c3d5e0bc97958e4cab9d4ba1c0b393f1850d2175b0f2d7c2d42c3f898b0037de3434dbcee26a67c6df66a264697066735822122010eb87b55b218a2ea1f52b7ec28b76f7b2c3fdd322e598b8fad38c094c6f396a64736f6c63430008110033",
  "devdoc": {
    "details": "Manages fees received from MicroCredit pools",
    "kind": "dev",
    "methods": {
      "balanceOf(address)": {
        "details": "Get the balance of a specific token in the treasury",
        "params": {
          "token": "Address of the token"
        },
        "returns": {
          "_0": "Balance amount"
        }
      },
      "claim(address,address,uint256)": {
        "details": "Claim tokens from the treasury",
        "params": {
          "amount": "Amount of tokens to claim",
          "to": "Address to send the tokens to",
          "token": "Address of the token to claim"
        }
      },
      "getRoleAdmin(bytes32)": {
        "details": "Returns the admin role that controls `role`. See {grantRole} and {revokeRole}. To change a role's admin, use {_setRoleAdmin}."
      },
      "grantPoolRole(address)": {
        "details": "Grant POOL_ROLE to a pool contract",
        "params": {
          "pool": "Address of the pool contract"
        }
      },
      "grantRole(bytes32,address)": {
        "details": "Grants `role` to `account`. If `account` had not been already granted `role`, emits a {RoleGranted} event. Requirements: - the caller must have ``role``'s admin role. May emit a {RoleGranted} event."
      },
      "grantTreasuryAdminRole(address)": {
        "details": "Grant TREASURY_ADMIN_ROLE to an address",
        "params": {
          "admin": "Address to grant the role to"
        }
      },
      "hasRole(bytes32,address)": {
        "details": "Returns `true` if `account` has been granted `role`."
      },
      "receiveFees(address,uint256)": {
        "details": "Receive fees from a pool",
        "params": {
          "amount": "Amount of tokens received",
          "token": "Address of the token being received"
        }
      },
      "renounceRole(bytes32,address)": {
        "details": "Revokes `role` from the calling account. Roles are often managed via {grantRole} and {revokeRole}: this function's purpose is to provide a mechanism for accounts to lose their privileges if they are compromised (such as when a trusted device is misplaced). If the calling account had been revoked `role`, emits a {RoleRevoked} event. Requirements: - the caller must be `account`. May emit a {RoleRevoked} event."
      },
      "revokePoolRole(address)": {
        "details": "Revoke POOL_ROLE from a pool contract",
        "params": {
          "pool": "Address of the pool contract"
        }
      },
      "revokeRole(bytes32,address)": {
        "details": "Revokes `role` from `account`. If `account` had been granted `role`, emits a {RoleRevoked} event. Requirements: - the caller must have ``role``'s admin role. May emit a {RoleRevoked} event."
      },
      "revokeTreasuryAdminRole(address)": {
        "details": "Revoke TREASURY_ADMIN_ROLE from an address",
        "params": {
          "admin": "Address to revoke the role from"
        }
      },
      "supportsInterface(bytes4)": {
        "details": "See {IERC165-supportsInterface}."
      }
    },
    "title": "Treasury",
    "version": 1
  },
  "userdoc": {
    "kind": "user",
    "methods": {},
    "version": 1
  },
  "storageLayout": {
    "storage": [
      {
        "astId": 24,
        "contract": "contracts/Treasury.sol:Treasury",
        "label": "_roles",
        "offset": 0,
        "slot": "0",
        "type": "t_mapping(t_bytes32,t_struct(RoleData)19_storage)"
      }
    ],
    "types": {
      "t_address": {
        "encoding": "inplace",
        "label": "address",
        "numberOfBytes": "20"
      },
      "t_bool": {
        "encoding": "inplace",
        "label": "bool",
        "numberOfBytes": "1"
      },
      "t_bytes32": {
        "encoding": "inplace",
        "label": "bytes32",
        "numberOfBytes": "32"
      },
      "t_mapping(t_address,t_bool)": {
        "encoding": "mapping",
        "key": "t_address",
        "label": "mapping(address => bool)",
        "numberOfBytes": "32",
        "value": "t_bool"
      },
      "t_mapping(t_bytes32,t_struct(RoleData)19_storage)": {
        "encoding": "mapping",
        "key": "t_bytes32",
        "label": "mapping(bytes32 => struct AccessControl.RoleData)",
        "numberOfBytes": "32",
        "value": "t_struct(RoleData)19_storage"
      },
      "t_struct(RoleData)19_storage": {
        "encoding": "inplace",
        "label": "struct AccessControl.RoleData",
        "members": [
          {
            "astId": 16,
            "contract": "contracts/Treasury.sol:Treasury",
            "label": "members",
            "offset": 0,
            "slot": "0",
            "type": "t_mapping(t_address,t_bool)"
          },
          {
            "astId": 18,
            "contract": "contracts/Treasury.sol:Treasury",
            "label": "adminRole",
            "offset": 0,
            "slot": "1",
            "type": "t_bytes32"
          }
        ],
        "numberOfBytes": "64"
      }
    }
  }
}